:0400000069EF00F0B4
:060008005F82B8EF14F066
:100018005F80D8CF96F0E8CF97F0E0CF98F0FACF8E
:1000280099F0FBCF9AF0E9CF9BF0EACF9CF0E1CFB3
:100038009DF0E2CF9EF0D9CF9FF0DACFA0F0F3CFBA
:10004800A1F0F4CFA2F0F6CFA3F0F7CFA4F0F8CF49
:10005800A5F0F5CFA6F05FC0A7F060C0A8F061C01A
:10006800A9F062C0AAF00E01C6B9CEA902D06AEC06
:100078001EF0AAC062F0A9C061F0A8C060F0A7C0D5
:100088005FF0A6C0F5FFA5C0F8FFA4C0F7FFA3C0A6
:10009800F6FFA2C0F4FFA1C0F3FFA0C0DAFF9FC023
:1000A800D9FF9EC0E2FF9DC0E1FF9CC0EAFF9BC054
:1000B800E9FF9AC0FBFF99C0FAFF98C0E0FF97C01C
:0E00C800E8FF96C0D8FF5F901000D0EF1CF04C
:100F00000000803F72313FFE753E58633D951D3CA9
:100F1000C5AE3A79213994803793A73556153400F8
:100F2000000000803FF0FFBEE2A93E8376BEAE2BFC
:0B0F30003E3CC3BDD2133D78D3BB0094
:100F3C000001C499C497570E0101006F010E016F97
:100F4C00010E026F84EC1BF0530E0101006F010EB9
:100F5C00016F000E026F84EC1BF04F0E0101006F4D
:100F6C00010E016F020E026F84EC1BF04B0E01019F
:100F7C00006F010E016F030E026F84EC1BF0CF0E9D
:100F8C000101006F000E016F000E026F84EC1BF06C
:100F9C00F70E0101466FC40E456F45C138F146C1CD
:100FAC0039F138EC1FF055EC1FF00001C4AB07D041
:100FBC00020EB8EC1BF0010ED0EC1BF006D0010EAB
:100FCC00B8EC1BF0020ED0EC1BF0000E0101486FC8
:100FDC00000E476F5AD045C13FF146C140F10101A7
:100FEC003F1F401F3F4B402BAFEC1DF001013F5109
:100FFC000025476F40510121486F0001C3A10FD05C
:10100C00040EAD650CD0C391AD510101595DD8A052
:10101C0006D0ADC059F147C157F148C158F1000194
:10102C00C3A30FD0040EAE650CD0C393AE51010117
:10103C00555DD8A006D0AEC055F147C153F148C19B
:10104C0054F10001C3A50FD0040EAB650CD0C395B1
:10105C00AB510101515DD8A006D0ABC051F147C1D5
:10106C004FF148C150F10001C3A70FD0040EAC657D
:10107C000CD0C397AC5101014D5DD8A006D0ACC0CB
:10108C004DF147C14BF148C14CF10E01CAABA3D78E
:10109C00CA9B53EC1FF03EEC1FF0DDEC1EF059C167
:1010AC0042F155C141F151C143F14DC144F1000E22
:1010BC000101496F030E496501D01ED04951010D44
:1010CC00410EF324D96E010EF420DA6E0001D151D9
:1010DC00DE5CD8B00ED001014951010D410EF32454
:1010EC00D96E010EF420DA6EDF500001D16F49C1C8
:1010FC00D2F00101492BDED70001C4BB94D039D109
:10110C00B40E0101206F0B0E216F450E226F53C1DF
:10111C0008F154C109F109EC1DF008C11DF109C118
:10112C001EF10AC11FF11AEC0CF01DC129F11EC1F0
:10113C002AF11FC12BF1DDEC0EF029C1CFF02AC131
:10114C00D0F0020EB8EC1BF0010ED0EC1BF01FD14E
:10115C00B40E0101206F0B0E216F450E226F57C18B
:10116C0008F158C109F109EC1DF008C11AF109C1C7
:10117C001BF10AC11CF11CEC1DF01AC11DF11BC1A5
:10118C001EF11CC11FF11AEC0CF01DC129F11EC17E
:10119C002AF11FC12BF1DDEC0EF029C1CFF02AC1D1
:1011AC00D0F0010EB8EC1BF0020ED0EC1BF0EFD01F
:1011BC004FC1CFF050C1D0F0020EB8EC1BF0010EB5
:1011CC00D0EC1BF0E4D0B40E0101206F8B0E216F1C
:1011DC00450E226F4BC108F14CC109F109EC1DF011
:1011EC0008C11AF109C11BF10AC11CF11CEC1DF05C
:1011FC001AC11DF11BC11EF11CC11FF11AEC0CF020
:10120C001DC129F11EC12AF11FC12BF1DDEC0EF01D
:10121C0029C1CFF02AC1D0F0010EB8EC1BF0020EA0
:10122C00D0EC1BF0B4D00001D251000AD8B468D76E
:10123C00010AD8B48DD7030AD8B4BAD7010AD8B4E6
:10124C00C2D7A5D0B40E0101206F0B0E216F450E35
:10125C00226F53C108F154C109F109EC1DF008C10A
:10126C001DF109C11EF10AC11FF11AEC0CF01DC1D0
:10127C0029F11EC12AF11FC12BF1DDEC0EF029C1A1
:10128C00CFF02AC1D0F0020EB8EC1BF0010ED0EC5E
:10129C001BF07DD0B40E0101206F0B0E216F450E9B
:1012AC00226F57C108F158C109F109EC1DF008C1B2
:1012BC001AF109C11BF10AC11CF11CEC1DF01AC179
:1012CC001DF11BC11EF11CC11FF11AEC0CF01DC14C
:1012DC0029F11EC12AF11FC12BF1DDEC0EF029C141
:1012EC00CFF02AC1D0F0010EB8EC1BF0020ED0ECFE
:1012FC001BF04DD0B40E0101206F8B0E216F450EEB
:10130C00226F4BC108F14CC109F109EC1DF008C169
:10131C001AF109C11BF10AC11CF11CEC1DF01AC118
:10132C001DF11BC11EF11CC11FF11AEC0CF01DC1EB
:10133C0029F11EC12AF11FC12BF1DDEC0EF029C1E0
:10134C00CFF02AC1D0F04FC1CFF050C1D0F0020E77
:10135C00B8EC1BF0010ED0EC1BF019D04FC1CFF044
:10136C0050C1D0F0010EB8EC1BF0020ED0EC1BF00B
:10137C000ED00001D251000AD8B464D7010AD8B4F7
:10138C0089D7030AD8B4B6D7010AD8B4E7D7CFC0E7
:10139C003AF1D0C03BF133EC12F0DDEC1EF0000161
:1013AC00C4AB02D0010E01D0000EFF0A01013F6F49
:1013BC003F3B3F470001C45101013F19DF0B3F196F
:1013CC000001C46FC487C495330ED16102D0010EE5
:1013DC001200000E120000018B6F11D10001B12B15
:1013EC008951B7278A51B823020EB119D8A412001B
:1013FC00000EB16FDE0E6E6FB00E6F6F3C0E706F25
:10140C00000E636F030E626FB7C060F0B8C061F07E
:10141C0083EC19F060C068F061C069F02FEC1DF02E
:10142C0068C06BF069C06CF06AC06DF050EC10F0E5
:10143C006BC07AF06CC07BF06DC07CF059EC0FF097
:10144C007AC08CF07BC08DF000018D05D8A003D044
:10145C00000E8D6F8C698CC0ADF0C381000EB86F1F
:10146C00000EB76F1200B22B8951B9278A51BA23DB
:10147C00020EB219D8A41200000EB26FDE0E6E6FFF
:10148C00B00E6F6F3C0E706F000E636F030E626FC9
:10149C00B9C060F0BAC061F083EC19F060C068F0BC
:1014AC0061C069F02FEC1DF068C06BF069C06CF086
:1014BC006AC06DF050EC10F06BC07AF06CC07BF031
:1014CC006DC07CF059EC0FF07AC08EF07BC08FF0C1
:1014DC0000018F05D8A003D0000E8F6F8E698EC0CF
:1014EC00AEF0C383000EBA6F000EB96F1200AF2BB3
:1014FC008951B3278A51B423020EAF19D8A4120014
:10150C00000EAF6FDE0E6E6FB00E6F6F3C0E706F15
:10151C00000E636F030E626FB3C060F0B4C061F075
:10152C0083EC19F060C068F061C069F02FEC1DF01D
:10153C0068C06BF069C06CF06AC06DF050EC10F0D4
:10154C006BC07AF06CC07BF06DC07CF059EC0FF086
:10155C007AC090F07BC091F000019105D8A003D027
:10156C00000E916F906990C0ABF0C385000EB46F04
:10157C00000EB36F1200B02B8951B5278A51B623D8
:10158C00020EB019D8A41200000EB06FDE0E6E6FF2
:10159C00B00E6F6F3C0E706F000E636F030E626FB8
:1015AC00B5C060F0B6C061F083EC19F060C068F0B3
:1015BC0061C069F02FEC1DF068C06BF069C06CF075
:1015CC006AC06DF050EC10F06BC07AF06CC07BF020
:1015DC006DC07CF059EC0FF07AC092F07BC093F0A8
:1015EC0000019305D8A003D0000E936F926992C0AE
:1015FC00ACF0C387000EB66F000EB56F1200000181
:10160C008B51000AD8B4EAD6010AD8B42CD7030AF5
:10161C00D8B46DD7010AD8A41200ADD70CC1D9FF2C
:10162C000DC1DAFF01010F51DE5CD8A002D0000E13
:10163C001200FF0E106FFF0E116F0E51126F136B15
:10164C00105112271151132312510C25D96E13511D
:10165C000D21DA6EDE500F5DD8A002D00E051200FF
:10166C00000E196F0EC11AF1000E1B6FD7D0195155
:10167C001A25006F016B0137000E036F020E026F0B
:10168C000AEC17F0010100511B6F1B51010DF350B7
:10169C000C25D96EF4500D21DA6E0F51DE18D8A43A
:1016AC0002D01B5112001B51010DF3500C25D96EA9
:1016BC00F4500D21DA6EDE500F5DD8B056D01B51B0
:1016CC00D8B450D0FF0E106FFF0E116F1B51126F5C
:1016DC00136B105112271151132312510C25D96E73
:1016EC0013510D21DA6E0F51DE5CD8B03BD01B517B
:1016FC00010DF3500C25D96EF4500D21DA6EDF502C
:10170C00006F0FC101F1FF0E106FFF0E116F1B5117
:10171C00126F136B105112271151132312510C25F8
:10172C00D96E13510D21DA6EDF502BEC19F001013B
:10173C00176FFF0E106FFF0E116F1B51126F136B93
:10174C00105112271151132312510C25D96E13511C
:10175C000D21DA6E1751DE18D8A402D01B05120029
:10176C001B5112001BC11AF159D0FF0E106FFF0E46
:10177C00116F0E51126F136B10511227115113234D
:10178C001B51146F156B1251145D1551800A166F95
:10179C001351800A1659D8B03FD01B51106F116BE2
:1017AC00010E1027000E112310510C25D96E11516A
:1017BC000D21DA6EDE500F5DD8B02ED01B51106F9C
:1017CC00116B010E1027000E112310510C25D96E30
:1017DC0011510D21DA6EDF50006F0FC101F11B5159
:1017EC00010DF3500C25D96EF4500D21DA6EDF503B
:1017FC002BEC19F00101186F1B51010DF3500C2546
:10180C00D96EF4500D21DA6E1851DE18D8A402D01E
:10181C001B5112001B2912001B29196F1A51195D3B
:10182C00D8A025D71B5112001FC123F10101246B35
:10183C00256B1E35233701E324812351286F22C1E8
:10184C0023F1246B256B2135233701E324812351AC
:10185C00276F2851D8B40BD02751285DD8B00ED0A3
:10186C00285100082725236F180E236507D020C1A7
:10187C001DF121C11EF122C11FF112002751D8B454
:10188C000BD02851275DD8B00ED027510008282541
:10189C00236F180E236507D01DC11DF11EC11EF14B
:1018AC001FC11FF11200060E266F1FBF268F22BF0D
:1018BC00268D1E8FFF0E1D17FF0E1E17000E1F17F5
:1018CC00218FFF0E2017FF0E2117000E2217275114
:1018DC00285DD8B01BD0D890203721372237270766
:1018EC0028512719D8B40DD0260726C123F1070E8D
:1018FC002317D8B406D0EFD7D8901F331E331D331F
:10190C00282B27512819D8B41FD0F6D72851275D7A
:10191C00D8B01AD0D8901D371E371F37280728513A
:10192C002719D8B40DD0260726C123F1070E23178B
:10193C00D8B406D0EFD7D890223321332033272BBD
:10194C0027512819D8A4F7D726AF0CD0FF0E1D1B92
:10195C00FF0E1E1BFF0E1F1B010E1D27000E1E234C
:10196C00000E1F2326AD0CD0FF0E201BFF0E211BDB
:10197C00FF0E221B010E2027000E2123000E222316
:10198C00000E266F1D5120271E5121231F5122238B
:10199C0022AF0ED0FF0E201BFF0E211BFF0E221BB1
:1019AC00010E2027000E2123000E2223010E266F8C
:1019BC0020C100F121C101F122C102F128C103F1C2
:1019CC0026C104F114EC15F000C11DF101C11EF18A
:1019DC0002C11FF1120020C024F0256A266A1F34B0
:1019EC00243601E325802450296E23C024F0256A77
:1019FC00266A2234243601E325802450286E29508F
:101A0C00D8B40BD02850295CD8B00ED0295000087F
:101A1C002824246E180E246407D021C01EF022C086
:101A2C001FF023C020F012002850D8B40BD029503E
:101A3C00285CD8B00ED0285000082924246E180E2B
:101A4C00246407D01EC01EF01FC01FF020C020F061
:101A5C001200060E276E20BE278E23BE278C1F8EEB
:101A6C00FF0E1E16FF0E1F16000E2016228EFF0EE6
:101A7C002116FF0E2216000E23162850295CD8B012
:101A8C001BD0D89021362236233628062950281808
:101A9C00D8B40DD0270627C024F0070E2416D8B4CE
:101AAC0006D0EFD7D89020321F321E32292A285068
:101ABC002918D8B41FD0F6D72950285CD8B01AD022
:101ACC00D8901E361F362036290629502818D8B42F
:101ADC000DD0270627C024F0070E2416D8B406D044
:101AEC00EFD7D890233222322132282A28502918B5
:101AFC00D8A4F7D727AE0CD0FF0E1E1AFF0E1F1A54
:101B0C00FF0E201A010E1E26000E1F22000E202290
:101B1C0027AC0CD0FF0E211AFF0E221AFF0E231A2F
:101B2C00010E2126000E2222000E2322000E276E0B
:101B3C001E5021261F5022222050232223AE0ED0CD
:101B4C00FF0E211AFF0E221AFF0E231A010E212658
:101B5C00000E2222000E2322010E276E21C001F05E
:101B6C0022C002F023C003F029C004F027C005F006
:101B7C00C4EC15F001C01EF002C01FF003C020F031
:101B8C00120001011D6F7ED0D70E01010C6F000EEB
:101B9C000D6F010E0E6F1CC10FF114EC0BF0010157
:101BAC001E6F09D0FC0E006F330E016F000E026F1A
:101BBC00CFEC1EF0120001011E51000AD8A4120035
:101BCC00F1D7D30E0C6F000E0D6F020E0E6F1CC1F1
:101BDC000FF114EC0BF001011E6F13D0300E006FDF
:101BEC00360E016F000E026FCFEC1EF01200F80ED5
:101BFC000101006F350E016F000E026FCFEC1EF06D
:101C0C00120001011E51000AD8B4E8D7010AD8A469
:101C1C001200EDD7D60E0C6F000E0D6F010E0E6F6D
:101C2C001CC10FF114EC0BF001011E6F09D0C00E9A
:101C3C00006F350E016F000E026FCFEC1EF012001C
:101C4C0001011E51000AD8A41200F1D7D50E0C6F59
:101C5C00000E0D6F010E0E6F1CC10FF114EC0BF08A
:101C6C0001011E6F09D0680E006F360E016F000E59
:101C7C00026FCFEC1EF0120001011E51000AD8A415
:101C8C001200F1D701011D51000AD8B47DD7010A09
:101C9C00D8B497D7030AD8B4BDD7010AD8A4120078
:101CAC00D5D7E8EC1BF053EC1FF0EB0E0101396FAC
:101CBC00240E386F38EC1FF055EC1FF0F30E0001BA
:101CCC00C217FC0EC217CF0EC2173F0EC217C4911B
:101CDC00C493C497C495C499C49B2BEC1CF0F6EC2C
:101CEC0013F0ADEC19F0F28EF28CF28C0001AD51C8
:101CFC00D8B4FCD7AE51D8B4F9D7AB51D8B4F6D7C9
:101D0C00AC51D8A410D0F2D78EAA02D0010E01D0BB
:101D1C00000EFF0A01014A6F4A3B4A4790504A198C
:101D2C00DF0B4A19906EAFEC1DF001010005FA0EA5
:101D3C000159D8A0E9D7D6EC1EF0CBC01CF100019C
:101D4C00CC51C7EC0DF0E4EC1EF00009D8B4FBD775
:101D5C000E01CA9B53EC1FF03EEC1FF00001C48730
:101D6C00C4958EBA03D055EC1DF001D0C48D000182
:101D7C00C495140E0001AD6105D0010ECE6FC0EC00
:101D8C0016F0F7D79EEC07F00009D8B408D01E0E59
:101D9C000001D127000ECE6FC0EC16F0EAD70B0E67
:101DAC000101406FB80E3F6FE3EC1CF0E2D72BC182
:101DBC002DF101012E6B2F6B2A352D3701E32E816E
:101DCC002D51376F3751D8A409D0000E296F000E52
:101DDC002A6F000E2B6F000E2C6F1200170E2D6F3A
:101DEC0029C12EF12AC12FF12BC130F12D29316FD0
:101DFC0004D0D89030332F332E33312FFAD7010142
:101E0C002E51326F2A8FFF0E2917FF0E2A17000E44
:101E1C002B172951336F2A51346F2B51356F366B79
:101E2C008E0E375F37AF16D03751800A8F0FD8B070
:101E3C0009D0000E296F000E2A6F000E2B6F000EBA
:101E4C002C6F1200D8903633353334333333373F5D
:101E5C00F9D715D0170E37650FD0000E296F000E6D
:101E6C002A6F000E2B6F000E2C6F1200D890333798
:101E7C0034373537363737073751D8A4F7D732517F
:101E8C00D8B408D0361F351F341F336D000E3423E1
:101E9C003523362333C129F134C12AF135C12BF155
:101EAC0036C12CF112007CC07EF000017F6B806B80
:101EBC007B357E3701E37F817E51886F8851D8A4B2
:101ECC0009D0000E7A6F000E7B6F000E7C6F000E37
:101EDC007D6F1200170E7E6F7AC07FF07BC080F092
:101EEC007CC081F07E29826F04D0D89081338033FE
:101EFC007F33822FFAD700017F51836F7B8FFF0EC8
:101F0C007A17FF0E7B17000E7C177A51846F7B516A
:101F1C00856F7C51866F876B8E0E885F88AF16D06D
:101F2C008851800A8F0FD8B009D0000E7A6F000E3E
:101F3C007B6F000E7C6F000E7D6F1200D890873384
:101F4C00863385338433883FF9D715D0170E8865CF
:101F5C000FD0000E7A6F000E7B6F000E7C6F000EA0
:101F6C007D6F1200D890843785378637873788077E
:101F7C008851D8A4F7D78351D8B408D0871F861FAF
:101F8C00851F846D000E85238623872384C07AF0F9
:101F9C0085C07BF086C07CF087C07DF012000DC13F
:101FAC0011F10101126B136B0C35113701E3128126
:101FBC001151146F1451D8A407D0000E0B6F000EE2
:101FCC000C6F000E0D6F120010C111F1126B136B20
:101FDC000F35113701E312811151196F1951D8A422
:101FEC0007D0000E0B6F000E0C6F000E0D6F120061
:101FFC0019517B0F14270DC119F11051191B800EAB
:10200C0019170C8F0F8FFF0E0E17FF0E0F17000EE8
:10201C001017000E156F000E166F000E176F070EBF
:10202C00186F0BA106D00E5115270F511623105106
:10203C001723D8900D330C330B33D8900E370F3742
:10204C001037182FEED7090E186F0BA106D00E51B2
:10205C0015270F51162310511723D8900D330C331D
:10206C000B33D890173316331533182FEED715C101
:10207C0000F116C101F117C102F114C103F119C12C
:10208C0004F114EC15F000C10BF101C10CF102C10B
:10209C000DF112006DC071F00001726B736B6C3539
:1020AC00713701E372817151746F7451D8A407D0E8
:1020BC00000E6B6F000E6C6F000E6D6F120070C017
:1020CC0071F0726B736B6F35713701E37281715103
:1020DC00796F7951D8A407D0000E6B6F000E6C6F1E
:1020EC00000E6D6F120079517B0F74276DC079F063
:1020FC007051791B800E79176C8F6F8FFF0E6E17D6
:10210C00FF0E6F17000E7017000E756F000E766FB6
:10211C00000E776F070E786F6BA106D06E51752786
:10212C006F51762370517723D8906D336C336B33AA
:10213C00D8906E376F377037782FEED7090E786FCF
:10214C006BA106D06E5175276F5176237051772392
:10215C00D8906D336C336B33D890773376337533CB
:10216C00782FEED775C060F076C061F077C062F062
:10217C0074C063F079C064F06CEC15F060C06BF067
:10218C0061C06CF062C06DF012002CC02EF02F6A92
:10219C00306A2B342E3601E32F802E50386E385097
:1021AC00D8A409D0000E2A6E000E2B6E000E2C6ED9
:1021BC00000E2D6E1200170E2E6E2AC02FF02BC0A3
:1021CC0030F02CC031F02E28326E04D0D890313241
:1021DC0030322F32322EFAD72F50336E2B8EFF0E19
:1021EC002A16FF0E2B16000E2C162A50346E2B506E
:1021FC00356E2C50366E376A8E0E385E38AE16D071
:10220C003850800A8F0FD8B009D0000E2A6E000EFD
:10221C002B6E000E2C6E000E2D6E1200D8903732E5
:10222C00363235323432383EF9D715D0170E386481
:10223C000FD0000E2A6E000E2B6E000E2C6E000EB0
:10224C002D6E1200D8903436353636363736380681
:10225C003850D8A4F7D73350D8B408D0371E361E10
:10226C00351E346C000E35223622372234C02AF04B
:10227C0035C02BF036C02CF037C02DF012000EC03C
:10228C0012F0136A146A0D34123601E313801250E3
:10229C00156E1550D8A407D0000E0C6E000E0D6EE6
:1022AC00000E0E6E120011C012F0136A146A103474
:1022BC00123601E3138012501A6E1A50D8A407D0AC
:1022CC00000E0C6E000E0D6E000E0E6E12001A50EB
:1022DC007B0F15260EC01AF011501A1A800E1A1602
:1022EC000D8E108EFF0E0F16FF0E1016000E11160F
:1022FC00000E166E000E176E000E186E070E196E7D
:10230C000CA006D00F501626105017221150182270
:10231C00D8900E320D320C32D8900F361036113652
:10232C00192EEED7090E196E0CA006D00F501626DA
:10233C001050172211501822D8900E320D320C3238
:10234C00D890183217321632192EEED716C001F06B
:10235C0017C002F018C003F015C004F01AC005F045
:10236C00C4EC15F001C00CF002C00DF003C00EF06F
:10237C0012000DC111F10101126B136B0C351137E9
:10238C0001E312811151186F1851D8A407D0000E17
:10239C000B6F000E0C6F000E0D6F120010C111F1BF
:1023AC00126B136B0F35113701E312811151196F39
:1023BC001951D8A407D0000E0B6F000E0C6F000E35
:1023CC000D6F1200000E156F000E166F000E176FBA
:1023DC001951890F185F0DC119F11051191B800E7D
:1023EC0019170C8FFF0E0B17FF0E0C17000E0D1785
:1023FC000F8FFF0E0E17FF0E0F17000E1017180E73
:10240C00146FD8901537163717370E510B5D0F51C7
:10241C000C5910510D59D8A007D00E510B5F0F510C
:10242C000C5B10510D5B1581D8900B370C370D37A9
:10243C00142FE7D715C100F116C101F117C102F134
:10244C0018C103F119C104F114EC15F000C10BF122
:10245C0001C10CF102C10DF11200FF0E0101206F40
:10246C007F0E216F470E226FD70E0E6F830E0F6FEC
:10247C003F0E106F3AC108F13BC109F109EC1DF098
:10248C0008C10BF109C10CF10AC10DF1BFEC11F03F
:10249C000BC11AF10CC11BF10DC11CF11CEC1DF090
:1024AC001AC11DF11BC11EF11CC11FF11AEC0CF05D
:1024BC001DC129F11EC12AF11FC12BF1DDEC0EF05B
:1024CC0029C138F12AC139F138EC1FF055EC1FF055
:1024DC002DD00001C4A504D001013C6B3C2B02D0D3
:1024EC0001013C6B0001C4A704D001013D6B3D2BE5
:1024FC0002D001013D6B3D513C03F3CF00F1F4CF11
:10250C0001F10001C4A904D001013E6B3E2B02D0A5
:10251C0001013E6B3E51026F036B94EC1CF0010108
:10252C0000510111D8B402D0010E12000E01CAAB39
:10253C00D0D7CA9B53EC1FF03EEC1FF0000E1200DC
:10254C000EC012F0136A146A0D34123601E31380B4
:10255C001250196E1950D8A407D0000E0C6E000E34
:10256C000D6E000E0E6E120011C012F0136A146A7A
:10257C001034123601E3138012501A6E1A50D8A47C
:10258C0007D0000E0C6E000E0D6E000E0E6E1200BB
:10259C00000E166E000E176E000E186E1A50890F74
:1025AC00195E0EC01AF011501A1A800E1A160D8EE2
:1025BC00FF0E0C16FF0E0D16000E0E16108EFF0ED3
:1025CC000F16FF0E1016000E1116180E156ED89061
:1025DC001636173618360F500C5C10500D5811501B
:1025EC000E58D8A007D00F500C5E10500D5A115039
:1025FC000E5A1680D8900C360D360E36152EE7D79F
:10260C0016C001F017C002F018C003F019C004F096
:10261C001AC005F0C4EC15F001C00CF002C00DF0AE
:10262C0003C00EF01200000E876E000E866E000EB8
:10263C00836E000E846E000E856E000E8C6EC70EBF
:10264C00886E89688A68000E8B6E000E0F01266FEB
:10265C00190E216FC00E196F000E2E6F070E116F21
:10266C00000E256F000E2D6F000E186F000E106FF0
:10267C00000E206F000E2C6F000E0F6F000E176FE8
:10268C00000E1F6F000E246F129112931295129769
:10269C001381138313851387148114831485148772
:1026AC00C20E0101006F3E0E016F000E026F07ECAF
:1026BC001FF0C40E0101006F3E0E016F000E026F81
:1026CC0000EC1FF0C60E0101006F3E0E016F000EF4
:1026DC00026FF9EC1EF0C80E0101006F3E0E016F87
:1026EC00000E026FF2EC1EF00E01C289A881A893B5
:1026FC00A895A897A889A691A683A695A697A6891A
:10270C00070EEB6F080EEA6F1200FF0E216E7F0EA4
:10271C00226E470E236ED70E0F6E830E106E3F0E79
:10272C00116E3BC009F03CC00AF08BEC1DF009C0E7
:10273C000CF00AC00DF00BC00EF0A6EC12F00CC0A1
:10274C001BF00DC01CF00EC01DF09DEC1DF01BC04D
:10275C001EF01CC01FF01DC020F0F1EC0CF01EC0D0
:10276C002AF01FC02BF020C02CF0CBEC10F02AC0AC
:10277C0039F02BC03AF04AEC1FF05DEC1FF026D07C
:10278C000001C4A503D03D6A3D2A01D03D6A000179
:10279C00C4A703D03E6A3E2A01D03E6A3E503D0299
:1027AC00F3CF01F0F4CF02F00001C4A903D03F6ACB
:1027BC003F2A01D03F6A3F50036E046A42EC1DF081
:1027CC0001500210D8B402D0010E12000E01CAAB97
:1027DC00D7D7CA9B5BEC1FF044EC1FF0000E120025
:1027EC000001BB95BB97BB91BB93000EC06F000E55
:1027FC00C16FBB99BB9B000EBD6F000EBC6F000E72
:10280C00BF6F000EBE6F000EAD6F000EAE6F000EF0
:10281C00AB6F000EAC6F000EB16F000EB26F000EFE
:10282C00AF6F000EB06F000EB86F000EB76F000EDA
:10283C00BA6F000EB96F000EB46F000EB36F000EBE
:10284C00B66F000EB56F9A0E0101006F2E0E016F60
:10285C00000E026FEBEC1EF0000E0101006F3D0E3E
:10286C00016F000E026FC8EC1EF0EA0E0101006F42
:10287C003C0E016F000E026FC1EC1EF00E01A69112
:10288C00A683A695A697A689A891A883A885A8979C
:10289C00A889000ECFEC18F051EC1FF0020ECFEC13
:1028AC0018F04FEC1FF012000001C4975DB45DA648
:1028BC0009D00B0E416EB80E406EFFEC1DF00001FE
:1028CC00C48712005DA40FD00B0E416EB80E406E83
:1028DC00FFEC1DF0000E416E2D0E406E6CEC18F0EE
:1028EC000001C48712005DA60FD00B0E416EB80E0E
:1028FC00406EFFEC1DF0000E416E2D0E406E38EC5C
:10290C0018F00001C48712005DB05DA209D00B0E57
:10291C00416EB80E406EEFEC1DF00001C487120042
:10292C005DA20FD00B0E416EB80E406EEFEC1DF099
:10293C00000E416E5A0E406E38EC18F00001C48740
:10294C0012005DA012000B0E416EB80E406EEFEC43
:10295C001DF0000E416E5A0E406E6CEC18F000012A
:10296C00C4871200FACF4BF0FBCF4CF0E9CF4DF0FF
:10297C00EACF4EF0E1CF4FF0E2CF50F0D9CF51F08B
:10298C00DACF52F0F3CF53F0F4CF54F0F6CF55F03A
:10299C00F7CF56F0F8CF57F0F5CF58F05FC059F09D
:1029AC0060C05AF061C05BF062C05CF00E01C7B34E
:1029BC00CFA303D0A8EC1CF00BD0C7B1CFA103D090
:1029CC00BCEC1CF005D0C2B9CAA902D079EC1DF040
:1029DC005CC062F05BC061F05AC060F059C05FF03F
:1029EC0058C0F5FF57C0F8FF56C0F7FF55C0F6FFAB
:1029FC0054C0F4FF53C0F3FF52C0DAFF51C0D9FFEB
:102A0C0050C0E2FF4FC0E1FF4EC0EAFF4DC0E9FFEE
:102A1C004CC0FBFF4BC0FAFF5F9211000101035148
:102A2C00D8B405D0005101110211D8A40CD0000E5D
:102A3C00006F000E016F000E026F1200032BD89076
:102A4C00023301330033000E0015056F000E011523
:102A5C00066FFE0E0215076F055106110711D8B44B
:102A6C000CD0ECD7032B010E0027000E0123000E17
:102A7C000223D890023301330033000E0015056F8A
:102A8C00000E0115066FFF0E0215076F055106119A
:102A9C000711D8B406D0E6D70307D8900037013712
:102AAC00023701BF03D0020E0361F6D703A1019FC9
:102ABC00D8900333035102130451D8A4028F00C1E0
:102ACC0000F101C101F102C102F1120000016351D8
:102ADC00D8B405D0605161116211D8A40CD0000E8D
:102AEC00606F000E616F000E626F1200632BD89046
:102AFC00623361336033000E6015656F000E611533
:102B0C00666FFE0E6215676F655166116711D8B45A
:102B1C000CD0ECD7632B010E6027000E6123000E46
:102B2C006223D890623361336033000E6015656F99
:102B3C00000E6115666FFF0E6215676F65516611A9
:102B4C006711D8B406D0E6D76307D89060376137E1
:102B5C00623761BF03D0020E6361F6D763A1619F38
:102B6C00D8906333635162136451D8A4628F60C0F0
:102B7C0060F061C061F062C062F012000450D8B421
:102B8C0005D0015002100310D8A40CD0000E016E19
:102B9C00000E026E000E036E1200042AD89003324F
:102BAC0002320132000E0114066E000E0214076E82
:102BBC00FE0E0314086E065007100810D8B40CD083
:102BCC00ECD7042A010E0126000E0222000E03226D
:102BDC00D890033202320132000E0114066E000E40
:102BEC000214076EFF0E0314086E0650071008102F
:102BFC00D8B406D0E6D70406D89001360236033690
:102C0C0002BE03D0020E0460F6D704A0029ED89038
:102C1C000432045003120550D8A4038E01C001F0F5
:102C2C0002C002F003C003F012000001956F000116
:102C3C00BBB71ED09551D8A408D0BEC089F0BFC078
:102C4C008AF0020EF1EC09F007D0AB69000EB46FFC
:102C5C00000EB36F000EAF6F0E01A881A883A8857C
:102C6C00A897A889030EFDEC18F057EC1FF01ED0A6
:102C7C0000019551D8A408D0BEC089F0BFC08AF01D
:102C8C00030EF1EC09F007D0AC69000EB66F000E24
:102C9C00B56F000EB06F0E01A891A883A885A897F8
:102CAC00A889020EFDEC18F057EC1FF00001BBA731
:102CBC0002D0010E01D0000EFF0A946F9447944786
:102CCC009447BB519419F70B9419BB6FBB9312002B
:102CDC000001956F0001BBB51ED09551D8A408D04A
:102CEC00BCC089F0BDC08AF0000EF1EC09F007D031
:102CFC00AD69000EB86F000EB76F000EB16F0E010C
:102D0C00A681A693A695A697A689010EFDEC18F0B0
:102D1C0059EC1FF01ED000019551D8A408D0BCC0AE
:102D2C0089F0BDC08AF0010EF1EC09F007D0AE6954
:102D3C00000EBA6F000EB96F000EB26F0E01A691A5
:102D4C00A683A695A697A689000EFDEC18F059EC63
:102D5C001FF00001BBA502D0010E01D0000EFF0A2E
:102D6C00946F94479447BB519419FB0B9419BB6F08
:102D7C00BB911200000E0101046FA6EC1EF08688B8
:102D8C000001C495C48717D00001C3A114D0C3910E
:102D9C00050EAD6105D0010ECE6F010E0101046F61
:102DAC000001AD51D15DD8B006D0AD511E0FD16F21
:102DBC00010E0101046F0001C4A504D00101016BD7
:102DCC00012B02D00101016B015104C102F1036B13
:102DDC000227000E03230001CE5101010227000E31
:102DEC00032302510311D8B4CFD70001C495CE519F
:102DFC00D8B402D0C4A5FBD7C495DDEC1EF0000EF0
:102E0C000001CE6F86981200000E0101056F03AF12
:102E1C0006D0026D031FD8B0032B010E056F01AF56
:102E2C0006D0006D011FD8B0012B010E051B000E42
:102E3C00076F000E066F02510311D8B41CD0010E9F
:102E4C00046F04D0D89002370337042B03AFFAD7A2
:102E5C00D890063707370251005D03510159D8A0AD
:102E6C0005D00251005F0351015B0681D8900333FA
:102E7C000233042FEDD70551D8B404D0066D071FCB
:102E8C00D8B0072B06C100F107C101F112000001F7
:102E9C00C02B0A0EC019D8B405D01CEC1FF00009C9
:102EAC00D8B404D00001BB89000EC06F0001C12B47
:102EBC000A0EC119D8B405D015EC1FF00009D8B40E
:102ECC0004D00001BB8B000EC16F0001BBB102D05E
:102EDC00BBA90DD0BBA902D0010E01D0000E6EEC27
:102EEC0016F00E01CE910001BB99000EC06FBBB362
:102EFC0002D0BBAB1200BBAB02D0010E01D0000E56
:102F0C001BEC16F00E01CE950001BB9B000EC16FA1
:102F1C0012005DA203D0446A442A01D0446A445092
:102F2C005DA003D0456A452A01D0456A45C046F0EC
:102F3C00476A4626000E47225DA403D0486A482AF9
:102F4C0001D0486A48504626000E47225DA603D0A1
:102F5C00496A492A01D0496A49504626000E47223F
:102F6C0046504710D8B412000001C485C4A708D03D
:102F7C00140EAD6505D0C4BD03D05AEC14F012008C
:102F8C00C4951200010EB8EC1BF0020ED0EC1BF035
:102F9C00030E5E6EE70E01010E6FC00E0F6F410E39
:102FAC00106F3FC108F140C109F109EC1DF008C1D7
:102FBC000BF109C10CF10AC10DF1D5EC0FF00BC1ED
:102FCC0029F10CC12AF10DC12BF1DDEC0EF029C158
:102FDC0041F12AC142F141C13AF142C13BF133EC1A
:102FEC0012F00009D8B402D0010E1200DDEC1EF074
:102FFC00000E1200020EB8EC1BF0010ED0EC1BF010
:10300C00020E5E6EE70E01010E6FC00E0F6F410EC9
:10301C00106F3FC108F140C109F109EC1DF008C166
:10302C000BF109C10CF10AC10DF1D5EC0FF00BC17C
:10303C0029F10CC12AF10DC12BF1DDEC0EF029C1E7
:10304C0041F12AC142F141C13AF142C13BF133ECA9
:10305C0012F00009D8B402D0010E1200DDEC1EF003
:10306C00000E1200020EFFEC1BF0010E15EC1CF012
:10307C00020E5E6EE70E0F6EC00E106E410E116EDC
:10308C0040C009F041C00AF08BEC1DF009C00CF0F7
:10309C000AC00DF00BC00EF045EC11F00CC02AF07C
:1030AC000DC02BF00EC02CF0CBEC10F02AC042F06F
:1030BC002BC043F042C03BF043C03CF08BEC13F010
:1030CC000009D8A4120031EC1FF01200010EFFEC25
:1030DC001BF0020E15EC1CF0030E5E6EE70E0F6E6D
:1030EC00C00E106E410E116E40C009F041C00AF0C6
:1030FC008BEC1DF009C00CF00AC00DF00BC00EF0EB
:10310C0045EC11F00CC02AF00DC02BF00EC02CF0C9
:10311C00CBEC10F02AC042F02BC043F042C03BF085
:10312C0043C03CF08BEC13F00009D8A4120031EC36
:10313C001FF01200AEC002F1ADC003F1ABC004F140
:10314C00ACC005F101010669000E076F030E07659F
:10315C0001D01AD00751010D020EF324D96E010EC5
:10316C00F420DA6E0651DE5CD8B00CD00751010D9C
:10317C00020EF324D96E010EF420DA6EDF50066FC6
:10318C0007C101F1072BE2D706C1CAF001C1C9F092
:10319C0012000101006F1CD086821A0EE82EFED799
:1031AC0000D08692120086801A0EE82EFED700D030
:1031BC008690120086841A0EE82EFED700D08694D4
:1031CC00120086861A0EE82EFED700D086961200C4
:1031DC0001010051000AD8B4DFD7010AD8B4E3D7F3
:1031EC00030AD8B4E7D7010AD8A41200EAD7000121
:1031FC00606F1CD086821A0EE82EFED700D0869205
:10320C00120086801A0EE82EFED700D0869012008F
:10321C0086841A0EE82EFED700D08694120086867D
:10322C001A0EE82EFED700D08696120000016051CF
:10323C00000AD8B4DFD7010AD8B4E3D7030AD8B44C
:10324C00E7D7010AD8A41200EAD701010B6F0101DC
:10325C000151026F036B021F031F024B032B005122
:10326C00046F056B02510427035105230B51066FA4
:10327C00076B061F071F064B072B0151086F096BC5
:10328C0006510827075109230451085D0951800A8A
:10329C000A6F0551800A0A59D8A002D000511200B9
:1032AC000B5112009C0E4A6ED70EE82EFED74A2EFA
:1032BC00FCD700F08EA602D05D8001D05D908EA26E
:1032CC0002D05D8201D05D928EA402D05D8401D0CB
:1032DC005D948EA002D0010E01D0000E00084A6E43
:1032EC00010E4A264A464A464A465D504A18F70B92
:1032FC004A185D6E8FEC17F01200000E0001656F1E
:10330C00000E646F62516311D8B41CD0010E666F4D
:10331C0004D0D89062376337662B63AFFAD7D89056
:10332C00643765376251605D63516159D8A005D02F
:10333C006251605F6351615B6481D8906333623327
:10334C00662FEDD764C060F065C061F01200B00E5E
:10335C000101006F320E016F000E026F07EC1FF0BF
:10336C00B00E0101006F320E016F000E026F00EC07
:10337C001FF0B00E0101006F320E016F000E026FD4
:10338C00F9EC1EF0B00E0101006F320E016F000E51
:10339C00026FF2EC1EF05D905D925D945D961200F2
:1033AC00000EC46E000EC56E010EC66ED80EC26E37
:1033BC00F00EC16EC150C2CF03F10101046B03C109
:1033CC0004F1036B03110001ED6F010104510001C5
:1033DC00EE6F0E01CE99C689C00E0101006F3E0E34
:1033EC00016F000E026FEBEC1EF0310EC36E12007B
:1033FC00000E0101406F5A0E3F6F00EC18F00009EF
:10340C00D8A412000B0E0101406FB80E3F6FF6EC02
:10341C001CF00009D8A41200000E0101406F0F0E21
:10342C003F6F00EC18F00009D8A41200050E010142
:10343C003B6FDC0E3A6F33EC12F01200D00ECA6EFA
:10344C00000ECB6E010ECC6E000EC86E000EC76E59
:10345C00C750C8CF00F10101016B00C101F1006B35
:10346C0000110001F16F010101510001F26F0E0119
:10347C00CE95CF93C783330EC96E1200D00ED06E8B
:10348C00000ED16E010ED26E000ECE6E000ECD6E01
:10349C00CD50CECF00F10101016B00C101F1006BE9
:1034AC0000110001F36F010101510001F46F0E01D5
:1034BC00CE91CF91C781330ECF6E12008C0E8BEC58
:1034CC001EF0C70E94EC1EF0A6EC1EF0000E5E6E05
:1034DC003FC13AF140C13BF133EC12F00009D8B4D2
:1034EC0002D0010E1200C70E8BEC1EF0C70E94EC2E
:1034FC001EF0DDEC1EF0000E1200C70E8BEC1EF061
:10350C008C0E94EC1EF09DEC1EF0010E5E6E3FC115
:10351C003AF140C13BF133EC12F00009D8B402D0BF
:10352C00010E1200C70E8BEC1EF0C70E94EC1EF0B1
:10353C00DDEC1EF0000E1200C70E8BEC1EF08C0E94
:10354C0094EC1EF0A6EC1EF0000E5E6E3FC13AF13C
:10355C0040C13BF133EC12F00009D8B402D0010E9B
:10356C001200C70E8BEC1EF0C70E94EC1EF0DDECB7
:10357C001EF0000E12008C0E8BEC1EF0C70E94EC9D
:10358C001EF09DEC1EF0010E5E6E3FC13AF140C183
:10359C003BF133EC12F00009D8B402D0010E12004A
:1035AC00C70E8BEC1EF0C70E94EC1EF0DDEC1EF07B
:1035BC00000E12000B0E0101406FB80E3F6F83EC32
:1035CC001AF00009D8A41200000E0101406F5A0E27
:1035DC003F6F00EC18F00009D8A412001B0E01017B
:1035EC00406F580E3F6FA2EC1AF012000B0E010147
:1035FC00406FB80E3F6FC1EC1AF00009D8A412004E
:10360C000B0E0101406FB80E3F6FE3EC1CF000098C
:10361C00D8A41200000E0101406F140E3F6F00EC95
:10362C0018F01200070E0101406FD00E3F6FF6EC40
:10363C001CF00009D8A41200000E0101406F2D0EE1
:10364C003F6FC8EC17F00009D8A41200070E010157
:10365C00406FD00E3F6FE3EC1CF012000B0E01011B
:10366C00406FB80E3F6FC1EC1AF00009D8A41200DD
:10367C00000E0101406F5A0E3F6FC8EC17F00009A5
:10368C00D8A412001B0E0101406F580E3F6F64EC62
:10369C001AF0120000C102F101C103F10101D8902E
:1036AC0003330233D890033302330251A46E00C1AA
:1036BC0002F1030E0217060E036FD8900237032F88
:1036CC00FCD70251A36E120000C102F101C103F13B
:1036DC000101D89003330233D890033302330251E3
:1036EC00A16E00C102F1030E0217060E036FD890F3
:1036FC000237032FFCD70251A06E1200010120EEFD
:10370C0002F00051D9260151DA22FF0EDF6E00C102
:10371C00D9FF01C1DAFF000EDE6E000EDD6E20EE69
:10372C0003F00051D9260151DA2202C1DFFF120049
:10373C00850ED66E000ED46E000ED36ED350D4CF41
:10374C0000F10101016B00C101F1006B00110001DE
:10375C00EF6F010101510001F06F0E01CA9B900E39
:10376C00D56E12000101006F09D08790839A120068
:10377C008790838A12008780839A1200010100517E
:10378C00000AD8B4F2D7010AD8B4F2D7030AD8A4E5
:10379C001200F1D70101006F09D0879487921200B3
:1037AC00878487921200879487821200010100514E
:1037BC00000AD8B4F2D7010AD8B4F5D7030AD8A4B2
:1037CC001200EED70EEC1FF01EEC1EF019EC13F0ED
:1037DC0048EC1EF024EC1AF054EC1EF05FEC1EF0DA
:1037EC000FEC1EF0D6EC19F044EC1AF09EEC1BF02A
:1037FC001200016E09D08790839A12008790838AF9
:10380C0012008780839A12000150000AD8B4F3D7B3
:10381C00010AD8B4F3D7030AD8A41200F2D7016E68
:10382C0009D087948792120087848792120087941C
:10383C00878212000150000AD8B4F3D7010AD8B419
:10384C00F6D7030AD8A41200EFD71E0E0001D66FCC
:10385C00140ED56F140ED36F320ED46F140ED76FA7
:10386C00BE0E0101006F3E0E016F000E026FCFEC19
:10387C001EF012000001E151E211E311D8B40CD09A
:10388C0001D80AD00500FA6EE151FD6EE251FE6ED0
:10389C00E351FF6EFA5012000F0112971200000153
:1038AC00E451E511E611D8B40CD001D80AD00500CA
:1038BC00FA6EE451FD6EE551FE6EE651FF6EFA5064
:1038CC0012000F01129512000001E751E811E911E5
:1038DC00D8B40CD001D80AD00500FA6EE751FD6EB1
:1038EC00E851FE6EE951FF6EFA5012000F0112936F
:1038FC0012000001EA51EB11EC11D8B40CD001D834
:10390C000AD00500FA6EEA51FD6EEB51FE6EEC51D9
:10391C00FF6EFA5012000F011291120001010051BA
:10392C000203F3CF04F1F4CF05F100510303F3507C
:10393C00052701510203F350052704C100F105C10D
:10394C0001F112000E01CF930001DB51DC11DD11EE
:10395C00D8B4120001D812000500FA6EDB51FD6ECE
:10396C00DC51FE6EDD51FF6EFA5012000E01CF914C
:10397C000001DE51DF11E011D8B4120001D81200A1
:10398C000500FA6EDE51FD6EDF51FE6EE051FF6EEA
:10399C00FA50120001EE4BF0100EEE6AE806FDE153
:1039AC0000EEABF02D0EEE6AE806FDE15E6A5D6A94
:1039BC005F905F92000157EF0EF0A6EC1EF0000E28
:1039CC005E6E3FC13AF140C13BF133EC12F000099D
:1039DC00D8B402D0010E1200DDEC1EF0000E120065
:1039EC009DEC1EF0010E5E6E3FC13AF140C13BF101
:1039FC0033EC12F00009D8B402D0010E1200DDEC49
:103A0C001EF0000E120008C100F109C101F1010104
:103A1C00026B8E0E036F000E046F14EC15F000C1D8
:103A2C0008F101C109F102C10AF1120001011A5198
:103A3C001B111C11D8B406D0000E1A1B000E1B1B38
:103A4C00800E1C1B1AC11AF11BC11BF11CC11CF1ED
:103A5C00120068C060F069C061F00001626B8E0EEC
:103A6C00636F000E646F6CEC15F060C068F061C0A1
:103A7C0069F062C06AF0120001500302F3CF05F046
:103A8C00F4CF06F001500402F35006260250030254
:103A9C00F350062605C001F006C002F01200010129
:103AAC005B515C115D11D8B4120001D812000500F5
:103ABC00FA6E5B51FD6E5C51FE6E5D51FF6EFA50FD
:103ACC0012000001D851D911DA11D8B4120001D862
:103ADC0012000500FA6ED851FD6ED951FE6EDA5106
:103AEC00FF6EFA5012000F0112B17FEC1CF00F01A7
:103AFC0012B36AEC1CF00F0112B555EC1CF00F015F
:103B0C0012A7120040EC1CF0120009C001F00AC010
:103B1C0002F0036A8E0E046E000E056EC4EC15F0F6
:103B2C0001C009F002C00AF003C00BF012001B50D8
:103B3C001C101D10D8B406D0000E1B1A000E1C1A37
:103B4C00800E1D1A1BC01BF01CC01CF01DC01DF0EC
:103B5C001200D3CF06F1D4CF07F101010751026F48
:103B6C000651046F02C105F104C100F105C101F158
:103B7C001200C3A408D0C39000016151C26E60C092
:103B8C00C1FFC380120000016151C26E60C0C1FF51
:103B9C001200C982C7CF08F0C8CF07F00750036ED8
:103BAC000850056E03C006F005C001F006C002F017
:103BBC001200CF82CDCF08F0CECF07F00750036EA6
:103BCC000850056E03C006F005C001F006C002F0F7
:103BDC001200AFEC1EF0010E5E6E40C03BF041C017
:103BEC003CF08BEC13F00009D8A4120031EC1FF060
:103BFC001200B8EC1EF0000E5E6E40C03BF041C0EF
:103C0C003CF08BEC13F00009D8A4120031EC1FF03F
:103C1C001200010EBF6EA00EBE6E000EC06E310EF5
:103C2C00BC6E000EBB6E0E01CE93B00EBD6E1200BC
:103C3C00000E0E01E16F000EE26F000EE36F000E3E
:103C4C00E46F000EE56F000EE66F1200C9A407D0FA
:103C5C00C9900250C86E01C0C7FFC9801200025043
:103C6C00C86E01C0C7FF1200CFA407D0CF9002507E
:103C7C00CE6E01C0CDFFCF8012000250CE6E01C0BF
:103C8C00CDFF1200600E0E01D86F000EDA6F000E21
:103C9C00DC6F060EDE6F000EDD6F1200800EA26E62
:103CAC00310EA16EC00EA06EAE503F0B4009AE6E31
:103CBC001200800EA56E310EA46EC00EA36EAE5017
:103CCC00CF0B1009AE6E12000E01CE99EDC060F054
:103CDC00EEC061F0BFEC1DF067EC1DF01200CFECF4
:103CEC001DF001C0BEF002C0BFF00001BB8323EC8D
:103CFC001FF01200DFEC1DF001C0BCF002C0BDF0E3
:103D0C000001BB812AEC1FF012000101046F04C1F9
:103D1C0000F10101016B50EC1BF012000101046F6A
:103D2C0004C100F10101016B6AEC1BF01200020EE0
:103D3C00B8EC1BF0020ED0EC1BF0010E5E6E120004
:103D4C00010EB8EC1BF0010ED0EC1BF0000E5E6EF9
:103D5C001200020EFFEC1BF0020E15EC1CF0010E13
:103D6C005E6E1200010EFFEC1BF0010E15EC1CF048
:103D7C00000E5E6E120000C1DBF001C1DCF002C16E
:103D8C00DDF0120000C1DEF001C1DFF002C1E0F095
:103D9C00120000C15BF101C15CF102C15DF11200C6
:103DAC00A0EC18F0CAC0CBF0C9C0CCF01200000EC9
:103DBC00B8EC1BF0000ED0EC1BF012000E01CAABDD
:103DCC0002D0010E1200000E120000C1D8F001C189
:103DDC00D9F002C1DAF0120000C1E1F001C1E2F049
:103DEC0002C1E3F0120000C1E4F001C1E5F002C130
:103DFC00E6F0120000C1E7F001C1E8F002C1E9F001
:103E0C00120000C1EAF001C1EBF002C1ECF01200AB
:103E1C00F28A0E01BF83BF81BA89BE9912000E01CE
:103E2C00CEA502D0010E1200000E12000E01CEA182
:103E3C0002D0010E1200000E1200F1C001F0F2C00F
:103E4C0002F02CEC1EF01200F3C001F0F4C002F0F2
:103E5C003AEC1EF01200000EFFEC1BF0000E15ECFD
:103E6C001CF0120001013951D46E38C1D3FF12007D
:103E7C000001F051D46EEFC0D3FF12000001F051DD
:103E8C00D46EEFC0D3FF12003A50D46E39C0D3FFBA
:103E9C001200CA861200D0861200D59E1200D58E52
:103EAC001200CA861200D0861200D59E1200D58E42
:0E3EBC0012001200120012001200120012007A
:020000040020DA
:10000000FF0FFF0FFF0FFF0FFF0FFF0FFF0FFF0F80
:020000040030CA
:0C000000ECFF3FFF80C8FFDFFFFFFFFFA9
:00000001FF
