:040000006EEF00F0AF
:100008004A82FACF04F0FBCF05F0E9CF06F0EACF39
:1000180007F0E1CF08F0E2CF09F0D9CF0AF0DACF44
:100028000BF0F3CF0CF0F4CF0DF0F6CF0EF0F7CFC6
:100038000FF0F8CF10F0F5CF11F04AC012F04BC016
:1000480013F04CC014F04DC015F0F2AC1DD00E01E9
:10005800C5B3CDA30AD001D817D00500FA6E3E501B
:10006800FD6E3F50FE6E40500CD0C5B1CDA10CD0F6
:1000780001D80AD00500FA6E3B50FD6E3C50FE6E6A
:100088003D50FF6EFA50120015C04DF014C04CF0F0
:1000980013C04BF012C04AF011C0F5FF10C0F8FFB2
:1000A8000FC0F7FF0EC0F6FF0DC0F4FF0CC0F3FF42
:1000B8000BC0DAFF0AC0D9FF09C0E2FF08C0E1FFA0
:1000C80007C0EAFF06C0E9FF05C0FBFF04C0FAFF4E
:0800D8004A921100A0EF1BF099
:100F000000010000000A00000064000000E8030087
:100F10000010270000A086010040420F0080969834
:100F20000000E1F50500CA9A3B00803F0020410027
:100F3000C842007A44401C4650C34724744997185D
:100F40004BBCBE4C6B6E4E03155079AD60F34971CE
:100F500000803FCDCC3DD7233C12833AB7D138C671
:100F60002737388635C0D633CC2B32708930E7DB53
:100F70002EE53C1E42A20D3C04429F6A4290014273
:100F80004DBB40EC473E8E1FBB3C04425A8B420493
:100F900044429C4F4100803F444952202F4E4F52C3
:090FA00000443A252E33660000DE
:100FAA00880E0001946F000E956F7DD3250EA71948
:100FBA00D8B407D084C0D9FF85C0DAFFA7C0DFFF45
:100FCA0070D3000E976F000E966F86C0F6FF87C02B
:100FDA00F7FF000EF86E0800F5502E0AD8A433D099
:100FEA00978D864B872B000EA36F000EA26F1ED023
:100FFA00A2C024F0A3C025F0000E276E0A0E266EAA
:10100A0040EC1DF086C0F6FF87C0F7FF000EF86EB1
:10101A000800F5502426000E2522D00E24240001B3
:10102A00A26FFF0E2520A36F864B872B86C0F6FF83
:10103A0087C0F7FF000EF86E0800F55064EC1DF04B
:10104A00D8A00AD0D5D7000E0001A36F000EA26F58
:10105A00978902D0978514D086C0F6FF87C0F7FF1C
:10106A000001864B872B000EF86E0800F5CFA7F01B
:10107A00A751000AD8B425D3660AD8B4EBD713D33C
:10108A00070E9715D8B4D3D297A904D0000EA36F30
:10109A00060EA26F94C0D9FF95C0DAFFDECFA4F086
:1010AA00DECFA5F0DDCFA6F0030E9427000E952320
:1010BA00A6AF11D0A4C06FF0A5C070F0A6C071F0A1
:1010CA002DEC1DF06FC0A4F070C0A5F071C0A6F0A1
:1010DA00030E00019613000E9D6F000E9C6FA45123
:1010EA00A511A611D8B487D0820E8B6FFF0E8C6F14
:1010FA00A4C08DF0A5C08EF0A6C08FF0A7C090F056
:10110A00100E05D0D89090338F338E338D33E82E5E
:10111A00F9D78D518B259C6F000E8C219D6F9C07F2
:10112A00D8A09D079CC024F09DC025F0000E276E14
:10113A00030E266E40EC1DF024C09CF025C09DF0E5
:10114A009CC01CF09DC01DF0000E1F6E0A0E1E6E84
:10115A006FEC17F01CC09CF01DC09DF000019DAF04
:10116A0003D09C07D8A09D079C5100086DEC0BF09A
:10117A0060C09EF061C09FF062C0A0F09EC02AF0DD
:10118A009FC02BF0A0C02CF0A4C02DF0A5C02EF05B
:10119A00A6C02FF07BEC13F02AC09EF02BC09FF064
:1011AA002CC0A0F09EC075F09FC076F0A0C077F06A
:1011BA00000E0001786F800E796F3F0E7A6FDEECB9
:1011CA0016F00001D8B004D09C07D8A09D0713D010
:1011DA009EC075F09FC076F0A0C077F0000E786FC1
:1011EA00200E796F410E7A6FDEEC16F00001D8A05E
:1011FA0002D09C4B9D2BA3BF06D0A3511BE10D0E21
:10120A00A25DD8B017D0A4C072F0A5C073F0A6C072
:10121A0074F0A251A1EC0DF060C075F061C076F0D7
:10122A0062C077F0FBEC10F072C0A4F073C0A5F0B6
:10123A0074C0A6F000019DBF06D09D511FE10A0EA1
:10124A009C5DD8B01BD0A451A511A611D8B454D016
:10125A00A4C067F0A5C068F0A6C069F0FFEC12F060
:10126A0000016751681169116A11D8B49DBF44D051
:10127A009D5104E1020E9C5DD8A03ED09EC075F03F
:10128A009FC076F0A0C077F0700E786F890E796FE4
:10129A00400E7A6FDEEC16F00001D8B002D0F70EDD
:1012AA0001D0F80E9C27FF0E9D239C516DEC0BF08C
:1012BA0060C09EF061C09FF062C0A0F0A4C016F0AA
:1012CA00A5C017F0A6C018F09EC019F09FC01AF06A
:1012DA00A0C01BF0D2EC11F016C098F017C099F01C
:1012EA0018C09AF019C09BF0000E0001A46F000EFE
:1012FA00A56F000EA66F33D0A4C067F0A5C068F032
:10130A00A6C069F0FFEC12F067C098F068C099F0C7
:10131A0069C09AF06AC09BF0A4C07EF0A5C07FF0B5
:10132A00A6C080F098C01EF099C01FF09AC020F0A5
:10133A009BC021F0F2EC19F01EC081F01FC082F0B0
:10134A0020C083F0C1EC1BF07EC0A4F07FC0A5F0E2
:10135A0080C0A6F0000E00019D6F000E9C6F010E6A
:10136A00A76F0A0EA719D8B41BD0A751040D010EF6
:10137A00F324F66E0F0EF420F76EF86A000EF822C8
:10138A000900F550985D0900F55099590900F55082
:10139A009A590900F5509B59D8A002D0A72BE1D73A
:1013AA00030E96158B6F000E97158C6F8B518C114F
:1013BA00D8B453D084C0D9FF85C0DAFF2D0E4AD0E5
:1013CA0098C016F099C017F09AC018F09BC019F08F
:1013DA00A751040D010EF324F66E0F0EF420F76EDA
:1013EA00F86A000EF8220900F5CF1AF00900F5CFC5
:1013FA001BF00900F5CF1CF00A00F5CF1DF0B1EC87
:10140A0017F016C09EF017C09FF018C0A0F019C0C0
:10141A00A1F09EC016F09FC017F0A0C018F0A1C09E
:10142A0019F00A0E1A6E000E1B6E000E1C6E000ECC
:10143A001D6E90EC19F016C09EF017C09FF018C0F0
:10144A00A0F019C0A1F000019E51300F84C0D9FF4D
:10145A0085C0DAFFDF6E844B852BA707A729D8B48E
:10146A000CD0AED784C0D9FF85C0DAFF300EDF6E4C
:10147A00844B852B9C07D8A09D079DBF05D09D5105
:10148A00F1E19C05D8B0EED7A3BF09D0A35104E17E
:10149A00090EA25DD8A003D0080EA76F02D0A2C081
:1014AA00A7F0A751A25F000EA7BFFF0EA35BA7512B
:1014BA00D8B408D084C0D9FF85C0DAFF2E0EDF6EFB
:1014CA00844B852BA7516DEC0BF060C091F061C085
:1014DA0092F062C093F0A4C02DF0A5C02EF0A6C071
:1014EA002FF091C02AF092C02BF093C02CF07BEC25
:1014FA0013F02AC067F02BC068F02CC069F0FFEC2B
:10150A0012F067C098F068C099F069C09AF06AC092
:10151A009BF077D098C016F099C017F09AC018F0CF
:10152A009BC019F00001A751040D010EF324F66EB9
:10153A000F0EF420F76EF86A000EF8220900F5CFB4
:10154A001AF00900F5CF1BF00900F5CF1CF00A00CC
:10155A00F5CF1DF0B1EC17F016C09EF017C09FF042
:10156A0018C0A0F019C0A1F09EC016F09FC017F0D5
:10157A00A0C018F0A1C019F00A0E1A6E000E1B6E58
:10158A00000E1C6E000E1D6E90EC19F016C09EF037
:10159A0017C09FF018C0A0F019C0A1F000019E5119
:1015AA00300F84C0D9FF85C0DAFFDF6E844B852BEC
:1015BA0098C016F099C017F09AC018F09BC019F09D
:1015CA00A751040D010EF324F66E0F0EF420F76EE8
:1015DA00F86A000EF8220900F5CF1AF00900F5CFD3
:1015EA001BF00900F5CF1CF00A00F5CF1DF090ECB6
:1015FA0019F016C098F017C099F018C09AF019C0DF
:10160A009BF00001A707A729D8B40CD083D784C0C0
:10161A00D9FF85C0DAFF300EDF6E844B852BA20717
:10162A00D8A0A307A251A311D8B43DD0F0D7A25194
:10163A00A311D8A408D0985199119A119B11D8A432
:10164A0002D0A24BA32B800EA7BF7F0E8B6FA25195
:10165A00A75DA351800A8B59D8B003D0A2C0A7F0C6
:10166A0010D0A351800A8B6FA751A25D800EA7BF2D
:10167A007F0E8B59D8B005D0A751A26FA36BA2BF1A
:10168A00A307030E96158B6F000E97158C6F8B515F
:10169A008C11D8B408D084C0D9FF85C0DAFF2D0ECA
:1016AA00DF6E844B852B86C0F6FF87C0F7FF864B1B
:1016BA00872B000EF86E0800F5CFA7F0A751D8A423
:1016CA0075D484C0D9FF85C0DAFF000EDF6E120020
:1016DA000001666F000166AF18D1666D6651800A17
:1016EA00120FD8A09CD0000E276E030E266E000E95
:1016FA001F6E0A0E1E6E000E196E640E186E66516B
:10170A00166E176A16BE170620EC19F016C01CF0E2
:10171A0017C01DF06FEC17F0090E1C24246E000E82
:10172A001D20256E40EC1DF0500E2424F66E0F0E7F
:10173A002520F76EF86A000EF8220900F5CF2DF081
:10174A000900F5CF2EF00A00F5CF2FF0000E1F6E1C
:10175A00640E1E6E000166511C6E1D6A1CBE1D06BB
:10176A006FEC17F0120E1C24246E000E1D20256E3D
:10177A00000E276E030E266E40EC1DF0500E242438
:10178A00F66E0F0E2520F76EF86A000EF822090091
:10179A00F5CF2AF00900F5CF2BF00A00F5CF2CF08F
:1017AA007BEC13F02AC063F02BC064F02CC065F008
:1017BA0063C02AF064C02BF065C02CF0000E276EBF
:1017CA00030E266E000E196E0A0E186E000166517F
:1017DA00166E176A16BE170620EC19F016C024F00A
:1017EA0017C025F040EC1DF0500E2424F66E0F0EA3
:1017FA002520F76EF86A000EF8220900F5CF2DF0C1
:10180A000900F5CF2EF00A00F5CF2FF07BEC13F08C
:10181A002AC060F02BC061F02CC062F012000001F7
:10182A006651800A750FD8A05AD0000E1F6E0A0E94
:10183A001E6E66511C6E1D6A1CBE1D066FEC17F0EB
:10184A00090E1C24246E000E1D20256E000E276E24
:10185A00030E266E40EC1DF0500E2424F66E0F0E79
:10186A002520F76EF86A000EF8220900F5CF2AF053
:10187A000900F5CF2BF00A00F5CF2CF0000E276EE9
:10188A00030E266E000E196E0A0E186E00016651BE
:10189A00166E176A16BE170620EC19F016C024F049
:1018AA0017C025F040EC1DF0500E2424F66E0F0EE2
:1018BA002520F76EF86A000EF8220900F5CF2DF000
:1018CA000900F5CF2EF00A00F5CF2FF07BEC13F0CC
:1018DA002AC060F02BC061F02CC062F01200000137
:1018EA006651030D500EF324F66E0F0EF420F76EB8
:1018FA00F86A000EF8220900F5CF60F00900F5CF6A
:10190A0061F00A00F5CF62F012006651800A120FE8
:10191A00D8A09CD0000E276E030E266E000E1F6EF6
:10192A000A0E1E6E000E196E640E186E6651166E41
:10193A00176A16BE170620EC19F016C01CF017C05D
:10194A001DF06FEC17F0090E1C24246E000E1D20EA
:10195A00256E40EC1DF0290E2424F66E0F0E25206C
:10196A00F76EF86A000EF8220900F5CF2DF009008B
:10197A00F5CF2EF00A00F5CF2FF0000E1F6E640E81
:10198A001E6E000166511C6E1D6A1CBE1D066FECA0
:10199A0017F0120E1C24246E000E1D20256E000E58
:1019AA00276E030E266E40EC1DF0290E2424F66ED7
:1019BA000F0E2520F76EF86A000EF8220900F5CFFF
:1019CA002AF00900F5CF2BF00A00F5CF2CF07BECBA
:1019DA0013F02AC063F02BC064F02CC065F063C01A
:1019EA002AF064C02BF065C02CF0000E276E030E9F
:1019FA00266E000E196E0A0E186E00016651166EDA
:101A0A00176A16BE170620EC19F016C024F017C084
:101A1A0025F040EC1DF0290E2424F66E0F0E252029
:101A2A00F76EF86A000EF8220900F5CF2DF00900CA
:101A3A00F5CF2EF00A00F5CF2FF07BEC13F02AC079
:101A4A0060F02BC061F02CC062F0120000016651F8
:101A5A00800A750FD8A05AD0000E1F6E0A0E1E6E8D
:101A6A0066511C6E1D6A1CBE1D066FEC17F0090E2E
:101A7A001C24246E000E1D20256E000E276E030EF8
:101A8A00266E40EC1DF0290E2424F66E0F0E25203A
:101A9A00F76EF86A000EF8220900F5CF2AF009005D
:101AAA00F5CF2BF00A00F5CF2CF0000E276E030EAF
:101ABA00266E000E196E0A0E186E00016651166E19
:101ACA00176A16BE170620EC19F016C024F017C0C4
:101ADA0025F040EC1DF0290E2424F66E0F0E252069
:101AEA00F76EF86A000EF8220900F5CF2DF009000A
:101AFA00F5CF2EF00A00F5CF2FF07BEC13F02AC0B9
:101B0A0060F02BC061F02CC062F012000001665137
:101B1A00030D290EF324F66E0F0EF420F76EF86A01
:101B2A00000EF8220900F5CF60F00900F5CF61F048
:101B3A000A00F5CF62F012000001696F6D0E000114
:101B4A006965A8D0000E276E030E266E000E1F6E62
:101B5A000A0E1E6E000E196E640E186E69C016F01B
:101B6A00176A20EC19F016C01CF017C01DF06FECB4
:101B7A0017F0090E1C24246E000E1D20256E40EC61
:101B8A001DF0500E2424F66E0F0E2520F76EF86A0B
:101B9A00000EF8220900F5CF2DF00900F5CF2EF03E
:101BAA000A00F5CF2FF0000E1F6E640E1E6E69C07C
:101BBA001CF01D6A6FEC17F0120E1C24246E000E26
:101BCA001D20256E000E276E030E266E40EC1DF0BA
:101BDA00500E2424F66E0F0E2520F76EF86A000EBA
:101BEA00F8220900F5CF2AF00900F5CF2BF00A00F8
:101BFA00F5CF2CF07BEC13F02AC066F02BC067F00F
:101C0A002CC068F0000E276E030E266E000E196EA9
:101C1A000A0E186E69C016F0176A20EC19F016C081
:101C2A0024F017C025F040EC1DF0500E2424F66E67
:101C3A000F0E2520F76EF86A000EF8220900F5CF7C
:101C4A002DF00900F5CF2EF00A00F5CF2FF066C06F
:101C5A002AF067C02BF068C02CF07BEC13F02AC086
:101C6A0063F02BC064F02CC065F063C02AF064C036
:101C7A002BF065C02CF0000E2D6E000E2E6E3F0E5E
:101C8A002F6E7BEC13F02AC060F02BC061F02CC0E1
:101C9A0062F012000A0E0001696569D0000E276E13
:101CAA00030E266E000E196E0A0E186E69C016F023
:101CBA00176A20EC19F016C024F017C025F040EC82
:101CCA001DF0500E2424F66E0F0E2520F76EF86ACA
:101CDA00000EF8220900F5CF2DF00900F5CF2EF0FD
:101CEA000A00F5CF2FF0000E1F6E0A0E1E6E69C095
:101CFA001CF01D6A6FEC17F0090E1C24246E000EEE
:101D0A001D20256E000E276E030E266E40EC1DF078
:101D1A00500E2424F66E0F0E2520F76EF86A000E78
:101D2A00F8220900F5CF2AF00900F5CF2BF00A00B6
:101D3A00F5CF2CF07BEC13F02AC066F02BC067F0CD
:101D4A002CC068F066C02AF067C02BF068C02CF07F
:101D5A00000E2D6E000E2E6E3F0E2F6E7BEC13F0D2
:101D6A002AC060F02BC061F02CC062F012000001A2
:101D7A006951030D500EF324F66E0F0EF420F76E20
:101D8A00F86A000EF8220900F5CF2AF00900F5CF0B
:101D9A002BF00A00F5CF2CF0000E2D6E000E2E6EE1
:101DAA003F0E2F6E7BEC13F02AC060F02BC061F05F
:101DBA002CC062F0120000019B519C119D11D8A405
:101DCA002FD0985199119A11D8A40BD0000EDD6F1B
:101DDA00210EDC6F000E986F000E996F000E9A6F3D
:101DEA001200000E756F000E766F000E776F98C0A6
:101DFA0078F099C079F09AC07AF0DEEC16F000011A
:101E0A00D8B007D0100E986FC90E996F3F0E9A6F0F
:101E1A001200100E986FC90E996FBF0E9A6F1200BA
:101E2A00985199119A11D8A41FD0000E756F000EFF
:101E3A00766F000E776F9BC078F09CC079F09DC0DA
:101E4A007AF0DEEC16F00001D8B007D0000E986FD9
:101E5A00000E996F000E9A6F1200100E986F490EBD
:101E6A00996F400E9A6F12009BC072F09CC073F07B
:101E7A009DC074F06AEC1CF072C075F073C076F005
:101E8A0074C077F098C072F099C073F09AC074F079
:101E9A006AEC1CF072C078F073C079F074C07AF002
:101EAA00DEEC16F00001D8A058D098C060F099C0B6
:101EBA0061F09AC062F09BC063F09CC064F09DC060
:101ECA0065F0F5EC13F060C0A1F061C0A2F062C049
:101EDA00A3F0A1C088F0A2C089F0A3C08AF016ECD2
:101EEA0010F088C0A4F089C0A5F08AC0A6F000014D
:101EFA009DAF2CD09ABF15D0A4C072F0A5C073F0C4
:101F0A00A6C074F0100E756F490E766F400E776F8B
:101F1A00FBEC10F072C0A4F073C0A5F074C0A6F078
:101F2A0015D0A4C07EF0A5C07FF0A6C080F0100E28
:101F3A000001816F490E826F400E836FC1EC1BF066
:101F4A007EC0A4F07FC0A5F080C0A6F0A4C098F01F
:101F5A00A5C099F0A6C09AF0120098C063F099C083
:101F6A0064F09AC065F09BC060F09CC061F09DC0AF
:101F7A0062F0F5EC13F060C0A1F061C0A2F062C09B
:101F8A00A3F0A1C088F0A2C089F0A3C08AF016EC21
:101F9A0010F088C09EF089C09FF08AC0A0F09EC051
:101FAA006FF09FC070F0A0C071F02DEC1DF06FC0F3
:101FBA00A4F070C0A5F071C0A6F000019AAF15D0C8
:101FCA00A4C07EF0A5C07FF0A6C080F0100E816F7D
:101FDA00C90E826F3F0E836FC1EC1BF07EC0A4F066
:101FEA007FC0A5F080C0A6F015D0A4C072F0A5C02D
:101FFA0073F0A6C074F0100E0001756FC90E766FEB
:10200A003F0E776FFBEC10F072C0A4F073C0A5F01E
:10201A0074C0A6F0A4C098F0A5C099F0A6C09AF022
:10202A00120088C072F089C073F08AC074F06AEC3A
:10203A001CF072C095F073C096F074C097F000015E
:10204A00955196119711D8A407D0000E886F000EEB
:10205A00896F000E8A6F1200000E756F800E766F00
:10206A003F0E776F95C078F096C079F097C07AF0F6
:10207A00DEEC16F00001D8B002D0010E01D0000E3D
:10208A00916F9151D8B414D0000E606F800E616FB9
:10209A003F0E626F95C063F096C064F097C065F01A
:1020AA00F5EC13F060C095F061C096F062C097F04D
:1020BA0095C02AF096C02BF097C02CF095C02DF051
:1020CA0096C02EF097C02FF07BEC13F02AC092F046
:1020DA002BC093F02CC094F092C07EF093C07FF096
:1020EA0094C080F0890E0001816F0F0E826F000E7E
:1020FA00846F040E836F69EC14F07EC08BF07FC08E
:10210A008CF080C08DF092C07EF093C07FF094C0B6
:10211A0080F0770E0001816F0F0E826F000E846FC0
:10212A00050E836F69EC14F07EC08EF07FC08FF0CD
:10213A0080C090F095C02AF096C02BF097C02CF082
:10214A008BC063F08CC064F08DC065F08EC060F007
:10215A008FC061F090C062F0F5EC13F060C02DF012
:10216A0061C02EF062C02FF07BEC13F02AC095F00C
:10217A002BC096F02CC097F000019151D8B41DD015
:10218A0095C06FF096C070F097C071F02DEC1DF0FD
:10219A006FC072F070C073F071C074F0100E00015D
:1021AA00756FC90E766F3F0E776FFBEC10F072C039
:1021BA0095F073C096F074C097F000018ABF07D0FB
:1021CA0095C088F096C089F097C08AF0120095C031
:1021DA006FF096C070F097C071F02DEC1DF06FC0D3
:1021EA0088F070C089F071C08AF0120074C078F06B
:1021FA000001796B7A6B7335783701E3798178510D
:10220A007D6F77C078F0796B7A6B7635783701E332
:10221A00798178517C6F7D51D8B40BD07C517D5D2A
:10222A00D8B00ED07D5100087C25786F180E7865DD
:10223A0007D075C072F076C073F077C074F01200E0
:10224A007C51D8B40BD07D517C5DD8B00ED07C5176
:10225A0000087D25786F180E786507D072C072F075
:10226A0073C073F074C074F01200060E7B6F74BFF3
:10227A007B8F77BF7B8D738FFF0E7217FF0E7317DD
:10228A00000E7417768FFF0E7517FF0E7617000E65
:10229A0077177C517D5DD8B01BD0D89075377637CB
:1022AA0077377C077D517C19D8B40DD07B077BC06A
:1022BA0078F0070E7817D8B406D0EFD7D8907433D1
:1022CA00733372337D2B7C517D19D8B41FD0F6D766
:1022DA007D517C5DD8B01AD0D89072377337743775
:1022EA007D077D517C19D8B40DD07B077BC078F06F
:1022FA00070E7817D8B406D0EFD7D890773376334D
:10230A0075337C2B7C517D19D8A4F7D77BAF0CD0C1
:10231A00FF0E721BFF0E731BFF0E741B010E72273A
:10232A00000E7323000E74237BAD0CD0FF0E751BB9
:10233A00FF0E761BFF0E771B010E7527000E762304
:10234A00000E7723000E7B6F725175277351762327
:10235A007451772377AF0ED0FF0E751BFF0E761BD5
:10236A00FF0E771B010E7527000E7623000E7723CA
:10237A00010E7B6F75C016F076C017F077C018F0A3
:10238A007DC019F07BC01AF09AEC15F016C072F0F5
:10239A0017C073F018C074F0120018C01CF01D6A40
:1023AA001E6A17341C3601E31D801C50246E24500B
:1023BA00D8A409D0000E166E000E176E000E186E05
:1023CA00000E196E12001BC01CF01D6A1E6A1A3418
:1023DA001C3601E31D801C50236E2350D8A409D05B
:1023EA00000E166E000E176E000E186E000E196E95
:1023FA001200178EFF0E1616FF0E1716000E18166D
:10240A001A8EFF0E1916FF0E1A16000E1B16000E54
:10241A001F6E000E206E000E216E000E226E7F0EC1
:10242A00245E2350980F245E180E236ED8901F3610
:10243A002036213622361950165C1A5017581B506E
:10244A001858D8A007D01950165E1A50175A1B50A0
:10245A00185A1F80D890163617361836232EE6D704
:10246A0024AE16D02450800A970FD8B009D0000E97
:10247A00166E000E176E000E186E000E196E120000
:10248A00D8902232213220321F32243EF9D715D079
:10249A00170E24640FD0000E166E000E176E000E73
:1024AA00186E000E196E1200D8901F36203621368B
:1024BA00223624062450D8A4F7D71FC016F020C00D
:1024CA0017F021C018F022C019F01200183419347C
:1024DA00216E2150D8A409D0000E166E000E176E78
:1024EA00000E186E000E196E12001B341C34206E7A
:1024FA002050D8A409D0000E166E000E176E000EDA
:10250A00186E000E196E1200188EFF0E1616FF0EA8
:10251A001716FF0E1816000E19161B8EFF0E191627
:10252A00FF0E1A16FF0E1B16000E1C16000E1C6E4E
:10253A00000E1D6E000E1E6E000E1F6E7F0E215EB7
:10254A002050A00F215E200E206ED8901C361D361A
:10255A001E361F361950165C1A5017581B50185839
:10256A001C501958D8A009D01950165E1A50175A7B
:10257A001B50185A1C50195A1C80D89016361736F8
:10258A0018361936202EE1D721AE16D02150800AEE
:10259A009F0FD8B009D0000E166E000E176E000EEF
:1025AA00186E000E196E1200D8901F321E321D329C
:1025BA001C32213EF9D715D01F0E21640FD0000E10
:1025CA00166E000E176E000E186E000E196E1200AF
:1025DA00D8901C361D361E361F3621062150D8A427
:1025EA00F7D71CC016F01DC017F01EC018F01FC088
:1025FA0019F0120069C06BF000016C6B6D6B6835E5
:10260A006B3701E36C816B51756F7551D8A409D092
:10261A00000E676F000E686F000E696F000E6A6F1A
:10262A001200170E6B6F67C06CF068C06DF069C05E
:10263A006EF06B296F6F04D0D8906E336D336C33A4
:10264A006F2FFAD700016C51706F688FFF0E6717F2
:10265A00FF0E6817000E69176751716F6851726F24
:10266A006951736F746B8E0E755F75AF16D07551A5
:10267A00800A8F0FD8B009D0000E676F000E686FFE
:10268A00000E696F000E6A6F1200D89074337333AC
:10269A0072337133753FF9D715D0170E75650FD0A0
:1026AA00000E676F000E686F000E696F000E6A6F8A
:1026BA001200D890713772377337743775077551AE
:1026CA00D8A4F7D77051D8B408D0741F731F721FDB
:1026DA00716D000E72237323742371C067F072C088
:1026EA0068F073C069F074C06AF012002CC030F050
:1026FA00316A326A2B34303601E331803050336E1E
:10270A003350D8A407D0000E2A6E000E2B6E000E8E
:10271A002C6E12002FC030F0316A326A2E343036F5
:10272A0001E331803050386E3850D8A407D0000EFB
:10273A002A6E000E2B6E000E2C6E120038507B0F84
:10274A0033262CC038F02F50381A800E38162B8EAC
:10275A002E8EFF0E2D16FF0E2E16000E2F16000EB1
:10276A00346E000E356E000E366E070E376E2AA0D6
:10277A0006D02D5034262E5035222F503622D8908E
:10278A002C322B322A32D8902D362E362F36372E2F
:10279A00EED7090E376E2AA006D02D5034262E50B9
:1027AA0035222F503622D8902C322B322A32D8900A
:1027BA00363235323432372EEED734C016F035C0C1
:1027CA0017F036C018F033C019F038C01AF09AEC76
:1027DA0015F016C02AF017C02BF018C02CF0120002
:1027EA0062C066F00001676B686B6135663701E3AA
:1027FA00678166516D6F6D51D8A407D0000E606F66
:10280A00000E616F000E626F120065C066F0676BA2
:10281A00686B6435663701E3678166516E6F6E5186
:10282A00D8A407D0000E606F000E616F000E626FB1
:10283A001200000E6A6F000E6B6F000E6C6F6E5105
:10284A00890F6D5F62C06EF065516E1B800E6E1748
:10285A00618FFF0E6017FF0E6117000E6217648FFB
:10286A00FF0E6317FF0E6417000E6517180E696FC7
:10287A00D8906A376B376C376351605D6451615920
:10288A0065516259D8A007D06351605F6451615B9A
:10289A006551625B6A81D890603761376237692F08
:1028AA00E7D76AC016F06BC017F06CC018F06DC09D
:1028BA0019F06EC01AF09AEC15F016C060F017C045
:1028CA0061F018C062F0120083C024F084C025F0C1
:1028DA00000E276E030E266E40EC1DF081C039F003
:1028EA0082C03AF02450392625503A2239C0F6FFE0
:1028FA003AC0F7FF000EF86E0900F5CF85F009001F
:10290A00F5CF86F00A00F5CF87F041D085C02DF0CB
:10291A0086C02EF087C02FF07EC02AF07FC02BF031
:10292A0080C02CF07BEC13F02AC072F02BC073F03D
:10293A002CC074F0000E276E030E266E000183076A
:10294A00D8A0840783C024F084C025F040EC1DF091
:10295A0081C039F082C03AF02450392625503A22F3
:10296A0039C0F6FF3AC0F7FF000EF86E0900F5CF3E
:10297A0075F00900F5CF76F00A00F5CF77F0FBEC99
:10298A0010F072C085F073C086F074C087F0000141
:10299A0083518411D8A4BAD785C07EF086C07FF04F
:1029AA0087C080F01200A9C0D9FFAAC0DAFFDECF23
:1029BA001EF0DDCF1FF0E2EC1BF01EC09BF01FC023
:1029CA009CF020C09DF0A7C0D9FFA8C0DAFFDECFD7
:1029DA001EF0DDCF1FF0E2EC1BF01EC098F01FC006
:1029EA0099F020C09AF0E0EC0EF098C0ABF099C0D4
:1029FA00ACF09AC0ADF0000E2D6E340E2E6E430E62
:102A0A002F6EABC02AF0ACC02BF0ADC02CF07BEC23
:102A1A0013F02AC060F02BC061F02CC062F00E0ED9
:102A2A000001636F490E646F400E656FF5EC13F099
:102A3A0060C0AEF061C0AFF062C0B0F00001B0BFDC
:102A4A0007D0AEC0A7F0AFC0A8F0B0C0A9F012007E
:102A5A00AEC072F0AFC073F0B0C074F0000E756F04
:102A6A00B40E766F430E776FFBEC10F072C0A7F0CE
:102A7A0073C0A8F074C0A9F01200196E010E1A6E84
:102A8A000001B2B350D019C0B3F0B291B283B29779
:102A9A000E0EBC6F010EBB6FF40EBA6FB285A40E98
:102AAA00BE6F3E0EBF6F000EC06F000ED06F000EDD
:102ABA00D16FA40EC16F3E0EC26F000EC36F000E1F
:102ACA00D26F000ED36FA40EC46F3E0EC56F000EF8
:102ADA00C66F000ED46F000ED56FA40EC76F3E0EE0
:102AEA00C86F000EC96F000ED66F000ED76F9A0E10
:102AFA00CA6F3E0ECB6F000ECC6F000ED86F000E61
:102B0A00D96F30EC1EF08FEC1FF03C0E166E3F0EA4
:102B1A00176EFEEC1EF0F40E166E340E176EF7ECFE
:102B2A001EF0000E1A6E1A5012001950D8B405D0B1
:102B3A00165017101810D8A40CD0000E166E000EDE
:102B4A00176E000E186E1200192AD8901832173212
:102B5A001632000E16141B6E000E17141C6EFE0E93
:102B6A0018141D6E1B501C101D10D8B40CD0ECD7B5
:102B7A00192A010E1626000E1722000E1822D890C6
:102B8A00183217321632000E16141B6E000E171466
:102B9A001C6EFF0E18141D6E1B501C101D10D8B48D
:102BAA0006D0E6D71906D89016361736183617BE45
:102BBA0003D0020E1960F6D719A0179ED8901932C1
:102BCA00195018121A50D8A4188E16C016F017C029
:102BDA0017F018C018F01200A5EC1EF0F28EF28C55
:102BEA0058EC19F073EC1DF0980E2C6E0F0E2D6E2A
:102BFA0020EC1AF0210E0001B16F760EE82EFED7F6
:102C0A00B12FFCD700F0350E266E010E276E370E57
:102C1A00286E010E296E330E2A6E010E2B6E44ECBD
:102C2A0016F0370E0001A76F010EA86F350EA96FB7
:102C3A00010EAA6FD8EC14F0A7C030F1A8C031F188
:102C4A00A9C032F1DE0E0001846F000E856FA10E5D
:102C5A00866F0F0E876F30C188F031C189F032C19B
:102C6A008AF0D5EC07F0010E2C6E000E12EC1BF068
:102C7A00DE0E2C6E000E2D6E20EC1AF0BBD7000E65
:102C8A00476E470E216E000E226E000E246E010E54
:102C9A00236E0D0EC8EC1AF0300E1B6E000E1C6E61
:102CAA00000E1E6E060E1D6E0D0E83EC1CF03150CA
:102CBA002D6E2C6A30502E6E2F6A2C502E122D50EB
:102CCA002F1226C0D9FF27C0DAFF2EC0DEFF2FC081
:102CDA00DDFF33502D6E2C6A32502E6E2F6A2C5027
:102CEA002E122D502F1228C0D9FF29C0DAFF2EC06C
:102CFA00DEFF2FC0DDFF35502D6E2C6A34502E6E4C
:102D0A002F6A2C502E122D502F122AC0D9FF2BC0F9
:102D1A00DAFF2EC0DEFF2FC0DDFF12004AB227EF16
:102D2A0017F067EC1EF0D8B00AD026D02FEC1FF0AF
:102D3A00120028EC1FF012001AEC1FF01200D6C085
:102D4A0021F0D7C022F020EEC7F001D80AD0050042
:102D5A00FA6EDE50FD6EDE50FE6EDE50FF6EFA50E9
:102D6A001200010AD8B4E8D7030AD8B4DFD7010A97
:102D7A00D8B4DFD7070AE0D70001B297B4C0D9FFA9
:102D8A00B5C0DAFFB44BB52BDF505FEC1FF0000182
:102D9A00B607D8A0B707B651B711D8A404D0000E09
:102DAA00186E060E03D0000E186E030E176E17501B
:102DBA001200000177AF16D075C07BF076C07CF0A8
:102DCA0077C07DF07B1F7C1F7D1F7B2B000E7C2331
:102DDA007D23000E7B25756F000E7C21766F800E99
:102DEA007D21776F7AAF16D078C07BF079C07CF0FE
:102DFA007AC07DF07B1F7C1F7D1F7B2B000E7C23FE
:102E0A007D23000E7B25786F000E7C21796F800E62
:102E1A007D217A6F000E751B000E761B800E771BC4
:102E2A00000E781B000E791B800E7A1B7851755D97
:102E3A00795176597A517759D8B002D0D890120080
:102E4A00D880120072EC1EF0D8B00AD026D07BECE3
:102E5A001FF0120077EC1FF012006FEC1FF0120047
:102E6A00D6C00CF0D7C00DF020EEC7F001D80AD0BA
:102E7A000500FA6EDE50FD6EDE50FE6EDE50FF6E0D
:102E8A00FA501200010AD8B4E8D7030AD8B4DFD737
:102E9A00010AD8B4DFD7070AE0D70001B297B4C055
:102EAA00D9FFB5C0DAFFB44BB52BDF507FEC1FF06A
:102EBA000001B607D8A0B707B651B711D8A404D0F5
:102ECA00000E036E060E03D0000E036E030E026E92
:102EDA0002501200000E216E1FAE06D01E6C1F1E7D
:102EEA00D8B01F2A010E216E1DAE06D01C6C1D1E05
:102EFA00D8B01D2A010E211A000E236E000E226E72
:102F0A001E501F10D8B41CD0010E206E04D0D890C9
:102F1A001E361F36202A1FAEFAD7D89022362336FD
:102F2A001E501C5C1F501D58D8A005D01E501C5E98
:102F3A001F501D5A2280D8901F321E32202EEDD7E4
:102F4A002150D8B404D0226C231ED8B0232A22C020
:102F5A001CF023C01DF01200000E1E6E000E1F6E24
:102F6A00000E206E000E216E1A501B101C101D1030
:102F7A00D8B42AD0010E226E06D0D8901A361B3643
:102F8A001C361D36222A1DAEF8D7D8901E361F369B
:102F9A00203621361A50165C1B5017581C501858E8
:102FAA001D501958D8A009D01A50165E1B50175A2E
:102FBA001C50185A1D50195A1E80D8901D321C32A6
:102FCA001B321A32222EE1D71EC016F01FC017F08C
:102FDA0020C018F021C019F01200000E876E000EF2
:102FEA00866E000E836E000E846E000E856E040ED1
:102FFA008C6E886889688A68000E8B6E000E0F01D5
:10300A00266FE70E216FF80E196F040E2E6F1169E5
:10301A00000E256F000E2D6F000E186F000E106F38
:10302A00000E206F000E2C6F000E0F6F000E176F30
:10303A00000E1F6F000E246F0F0E0E01FA6F100E96
:10304A00FB6FB781B783B795B797B789B891B8932C
:10305A00B885B897B88912004AB2E6EF18F0A6EC1C
:10306A001FF0B4C0D9FFB5C0DAFFDF6E0001B44B60
:10307A00B52BB607D8A0B707B651B711D8B404D044
:10308A0089EC1FF0050E1200B28506D005EC1FF080
:10309A0012000CEC1FF01200D0C021F0D1C022F0B7
:1030AA0020EEBEF001D80AD00500FA6EDE50FD6EA1
:1030BA00DE50FE6EDE50FF6EFA501200010AD8B4DE
:1030CA00E8D7030AD8B4E2D7010AD8B4DFD7070A87
:1030DA00E0D71B6E165017101810D8B41BD01B500F
:1030EA00030DBE0EF324D96E000EF420DA6E16C05C
:1030FA00DEFF17C0DEFF18C0DEFF1B50020DD00E28
:10310A00F324D96E000EF420DA6E19C0DEFF1AC05D
:10311A00DDFF12001B50030DBE0EF324D96E000E04
:10312A00F420DA6EA40EDE6E3E0EDE6E000EDE6E49
:10313A001B50020DD00EF324D96E000EF420DA6E65
:10314A00000EDE6E000EDD6E1200066E01500210D9
:10315A000310D8B41BD00650030DBE0EF324D96E4B
:10316A00000EF420DA6E01C0DEFF02C0DEFF03C0EB
:10317A00DEFF0650020DD00EF324D96E000EF420A5
:10318A00DA6E04C0DEFF05C0DDFF12000650030D33
:10319A00BE0EF324D96E000EF420DA6E700EDE6EC7
:1031AA003F0EDE6E000EDE6E0650020DD00EF324C8
:1031BA00D96E000EF420DA6E000EDE6E000EDD6EA1
:1031CA001200B0EC1FF0B4C0D9FFB5C0DAFFDF6E51
:1031DA000001B44BB52BB607D8A0B707B651B71143
:1031EA00D8B404D09BEC1FF0050E1200B28506D0AD
:1031FA0063EC1FF0120067EC1FF01200D0C00CF055
:10320A00D1C00DF020EEBEF001D80AD00500FA6E4A
:10321A00DE50FD6EDE50FE6EDE50FF6EFA5012007A
:10322A00010AD8B4E8D7030AD8B4E2D7010AD8B455
:10323A00DFD7070AE0D7000E1B6E17AE06D0166C52
:10324A00171ED8B0172A010E1B6E19AE04D0186CBF
:10325A00191ED8B0192A18501910D8B418D0010E4E
:10326A001A6E04D0D890183619361A2A19AEFAD717
:10327A001850165C19501758D8A004D01850165E6A
:10328A001950175AD890193218321A2EF1D71B50E2
:10329A00D8B404D0166C171ED8B0172A16C016F068
:1032AA0017C017F01200080E496E110E2C6E3A0E56
:1032BA00E82EFED72C2EFCD700D0000E436E010E4E
:1032CA009BEC1EF0030E24EC1EF0E10E00D0E82E5B
:1032DA00FDD7030E24EC1EF0E10E00D0E82EFDD738
:1032EA00030E24EC1EF00C0EE82EFED700F0020EA0
:1032FA0024EC1EF049502009F0EC1EF0040E426E38
:10330A0036EC1FF0C9EC1EF0020E416E4150040962
:10331A00F0EC1EF012001A501B101C101D10D8B42D
:10332A0024D0010E1E6E06D0D8901A361B361C36D3
:10333A001D361E2A1DAEF8D71A50165C1B50175898
:10334A001C5018581D501958D8A008D01A50165E8B
:10335A001B50175A1C50185A1D50195AD8901D3212
:10336A001C321B321A321E2EE7D716C016F017C0AF
:10337A0017F018C018F019C019F012004AB24EEF2F
:10338A001AF00001B2850AD021EC1FF0120083EC7A
:10339A001FF0030E12001AEC1FF01200D0C021F029
:1033AA00D1C022F020EEBEF001D80AD00500FA6E94
:1033BA00DE50FD6EDE50FE6EDE50FF6EFA501200D9
:1033CA00010AD8B4E8D7030AD8B4DED7010AD8B4B8
:1033DA00DBD7070AD8B4DBD7DED78E0E266E06D027
:1033EA00D890213220321F321E32262A000E1E1495
:1033FA00226E000E1F14236E000E2014246EFF0E80
:10340A002114256E2250231024102510D8A4E8D7A1
:10341A001EC016F01FC017F020C018F026C019F001
:10342A00000E1A6E9AEC15F016C01EF017C01FF0A7
:10343A0018C020F01200000E2E6E16D02CC0F6FF17
:10344A002DC0F7FF000EF86E0E0EF76403D00800C9
:10345A00F55005D0F6CFD9FFF7CFDAFFDF50E9EC08
:10346A001EF02C4A2D2A2E2A2CC0F6FF2DC0F7FF5B
:10347A00000EF86E0E0EF76403D00800F55005D062
:10348A00F6CFD9FFF7CFDAFFDF500009D8B4120020
:10349A00D5D70001B2850AD073EC1FF0120095EC63
:1034AA001FF0030E12006FEC1FF01200D0C00CF0D8
:1034BA00D1C00DF020EEBEF001D80AD00500FA6E98
:1034CA00DE50FD6EDE50FE6EDE50FF6EFA501200C8
:1034DA00010AD8B4E8D7030AD8B4DED7010AD8B4A7
:1034EA00DBD7070AD8B4DBD7DED74AB236EF1BF0F0
:1034FA008FEC1FF00001B2A707D067EC1EF0D8A02E
:10350A0003D00F0E0001BC6F0001BC51030D000E69
:10351A00F324D96E010EF420DA6E01D80AD0050020
:10352A00FA6EDE50FD6EDE50FE6EDE50FF6EFA5011
:10353A0012000001BC6F12004AB25AEF1BF00001E0
:10354A00B297020EBD6F06D021EC1FF012001AECE2
:10355A001FF01200D4C021F0D5C022F020EEC4F032
:10356A0001D80AD00500FA6EDE50FD6EDE50FE6EFE
:10357A00DE50FF6EFA501200020AD8B4E5D7010AEB
:10358A00D8B4E2D7E4D7256E255042EC15F00009ED
:10359A00D8B4FAD721C016F022C017F023C018F009
:1035AA0024C019F0F2EC1DF0900E1C6E3E0E1D6E3A
:1035BA00000E1E6E000E1F6E000E206EBBEC1DF07C
:1035CA005BEC1FF082EC1DF0E806D8A41200FAD7D3
:1035DA004AB27EEF1BF020EE02F02150D92622508B
:1035EA00DA22DECF16F0DDCF17F021C0D9FF22C0D4
:1035FA00DAFFDECF18F0DDCF19F0F2EC1DF0000E85
:10360A001C6E000E1D6E000E1E6E000E1F6E000E4A
:10361A00206EC9EC1DF0020E12002D6E14D02D5032
:10362A00800FF0EC1EF012002D50C00FF0EC1EF0CF
:10363A0012002D50940FF0EC1EF012002D50D40FF2
:10364A00F0EC1EF012002C50000AD8B4E8D7010A98
:10365A00D8B4EAD7030AD8B4ECD7010AD8A412001E
:10366A00EDD792EC1FF00001B2A707D072EC1EF062
:10367A00D8A003D00F0E0001BC6F0001BC51030D8E
:10368A00000EF324D96E010EF420DA6E01D80AD0A6
:10369A000500FA6EDE50FD6EDE50FE6EDE50FF6EE5
:1036AA00FA5012000001BC6F12000001B297020E1C
:1036BA00BD6F06D073EC1FF012006FEC1FF0120002
:1036CA00D4C00CF0D5C00DF020EEC4F001D80AD059
:1036DA000500FA6EDE50FD6EDE50FE6EDE50FF6EA5
:1036EA00FA501200020AD8B4E5D7010AD8B4E2D7D0
:1036FA00E4D720EE02F00C50D9260D50DA22DECFA4
:10370A0001F0DDCF02F00CC0D9FF0DC0DAFFDECF29
:10371A0003F0DDCF04F0FFEC1DF0000E076E000E83
:10372A00086E000E096E000E0A6E000E0B6ED7ECC4
:10373A001DF0020E12006A0EF66E390EF76E000EBA
:10374A00F86E01EE00F010EE30F00900F5CFEEFF52
:10375A00E550E150FAE100EEB2F04C0EEE6AE806EE
:10376A00FDE100EE3BF00E0EEE6AE806FDE14A903E
:10377A004A920001F1EF15F0000181518211831183
:10378A00D8B406D0000E811B000E821B800E831B4C
:10379A007EC072F07FC073F080C074F081C075F093
:1037AA0082C076F083C077F0FBEC10F072C07EF036
:1037BA0073C07FF074C080F01200000E216E1FAE3D
:1037CA0006D01E6C1F1ED8B01F2A010E216E1EC005
:1037DA0016F01FC017F0186A8E0E196E21C01AF063
:1037EA009AEC15F016C01EF017C01FF018C020F092
:1037FA0012004AB2CDEF1CF021C016F022C017F019
:10380A00000E196E020E186EF2EC1DF0000E1C6E00
:10381A00000E1D6E000E1E6E000E1F6E000E206E34
:10382A00C9EC1DF0020E12004AB2E5EF1CF021C0ED
:10383A0016F022C017F0000E196E010E186EF2EC87
:10384A001DF0000E1C6E000E1D6E000E1E6E000E88
:10385A001F6E000E206EC9EC1DF0020E12004AB255
:10386A00FDEF1CF021C016F022C017F0000E196EF1
:10387A00010E186EF2EC1DF0000E1C6E000E1D6E8D
:10388A00000E1E6E000E1F6E000E206EC9EC1DF09B
:10389A00040E12004AB215EF1DF021C016F022C024
:1038AA0017F0000E196E020E186EF2EC1DF0000EE3
:1038BA001C6E000E1D6E000E1E6E000E1F6E000E98
:1038CA00206EC9EC1DF0040E1200000174AF0FD077
:1038DA0072C06FF073C070F074C071F02DEC1DF0FF
:1038EA006FC072F070C073F071C074F0120072C0D1
:1038FA0072F073C073F074C074F012001F6E1F5020
:10390A0042EC15F00009D8B4FAD71BC016F01CC057
:10391A0017F01DC018F01EC019F0F2EC1DF057EC9C
:10392A001FF082EC1DF0E806D8A41200FAD7196E2F
:10393A00010E1A6E0001B2B111D0B281000E1A6ED8
:10394A001950D8B402D0010E01D0020EBC6FAEECF1
:10395A001FF0AEEC1EF0D8A0E5EC1DF01A501200D4
:10396A00803D00A23C008C3C00262D006230006E97
:10397A003D008633005E3E00503E00423E00343E2B
:10398A0000263E00183E000A3E00B83C00423500C0
:10399A000CC001F00DC002F0000E046E020E036EA0
:1039AA00FFEC1DF0000E076E000E086E000E096E89
:1039BA00000E0A6E000E0B6ED7EC1DF0020E1200FE
:1039CA000CC001F00DC002F0000E046E010E036E71
:1039DA00FFEC1DF0000E076E000E086E000E096E59
:1039EA00000E0A6E000E0B6ED7EC1DF0020E1200CE
:1039FA000CC001F00DC002F0000E046E010E036E41
:103A0A00FFEC1DF0000E076E000E086E000E096E28
:103A1A00000E0A6E000E0B6ED7EC1DF0040E12009B
:103A2A000CC001F00DC002F0000E046E020E036E0F
:103A3A00FFEC1DF0000E076E000E086E000E096EF8
:103A4A00000E0A6E000E0B6ED7EC1DF0040E12006B
:103A5A0000016F5170117111D8B406D0000E6F1B9E
:103A6A00000E701B800E711B6FC06FF070C070F07B
:103A7A0071C071F0120024502602F3CF28F0F4CF5F
:103A8A0029F024502702F350292625502602F35004
:103A9A00292628C024F029C025F01200276E27C045
:103AAA0044F026C045F0440E216E000E226E000E30
:103ABA00246E020E236E0D0EC8EC1AF01200186E58
:103ACA00000E176E3A0E186005D02F0E186402D039
:103ADA00010E176E17C016F016301200010E266E70
:103AEA000B0E53EC1DF00C0E286E100E296E000EF4
:103AFA002A6E010E7DEC1EF01200010E166E0001F8
:103B0A00B2B108D0B293B3698FEC1FF08CEC1FF0FE
:103B1A00BDC016F016501200000E0E01E16F000E25
:103B2A00E26F000EE36F000EE46F000EE56F000E09
:103B3A00E66F1200000E87EC1EF0010E87EC1EF0F5
:103B4A00000E87EC1EF0080EE82EFED700F01200D9
:103B5A0043C048F0480E216E000E226E000E246EFD
:103B6A00010E236E270EC8EC1AF012001CC016F0C4
:103B7A001DC017F01EC018F01FC019F020C01AF09F
:103B8A00020E6EEC18F012001CC016F01DC017F0E1
:103B9A001EC018F01FC019F020C01AF0000E6EECFB
:103BAA0018F0120007C001F008C002F009C003F0C3
:103BBA000AC004F00BC005F0000EAAEC18F01200BF
:103BCA0008D0000E166E000E176E3BEC1EF07AEC53
:103BDA001AF00001B2A11200F4D70001B2A5120036
:103BEA0016C0B4F017C0B5F018C0B6F019C0B7F0D7
:103BFA00B29512000001B2A5120001C0B4F002C0D1
:103C0A00B5F003C0B6F004C0B7F0B2951200620E68
:103C1A000E01D86F000EDA6F000EDC6F020EDE6F37
:103C2A00000EDD6F12002A6E295091EC1EF02A3820
:103C3A000F0B24EC1EF02A5024EC1EF01200286E02
:103C4A0043C027F00F0E27162838F00B2710436EB3
:103C5A009FEC1DF0120096BA1200000E956E280E07
:103C6A00966E000E976E030E936E12000E01CDB182
:103C7A0012000E01CDB11200080EE82EFED700F098
:103C8A00F8D74AB2D1EF1EF00001B287B351B3257B
:103C9A005FEC1FF0030E12004AB2D9EF1EF00001CA
:103CAA00B287D880B3355FEC1FF0050E12004AB216
:103CBA00E1EF1EF0BEEC1FF00001B291000EBD6FE5
:103CCA000E0E12009750BF0B4009976E9738E832D4
:103CDA00E832010B166E163012009750BF0B4009DE
:103CEA00976E9738E832E832010B016E0130120004
:103CFA002B6E2B50281029102A10266E090E53EC11
:103D0A001DF01200266E2650D8B402D0438401D08A
:103D1A004394ADEC1DF01200266E2650D8B402D0A2
:103D2A00438001D04390ADEC1DF01200266E265060
:103D3A00D8B402D0438601D04396ADEC1DF01200F0
:103D4A00A4EC1FF091EC1DF0F2EC17F00CEC1EF055
:103D5A0012000E01C5A103D0166A162A01D0166AEE
:103D6A00163012004AB23CEF1FF00001B297A8ECDD
:103D7A001FF0040E12004AB242EF1FF00001B29186
:103D8A00000EBD6F0E0E1200010EF0EC1EF0A60E14
:103D9A00E82EFED700D012000001B287B351B32536
:103DAA007FEC1FF0030E12000001B287D880B335F2
:103DBA007FEC1FF0050E1200BFEC1FF00001B2915C
:103DCA00000EBD6F0E0E12002B6E010E296E2B50C7
:103DDA0018EC1EF012002B6E000E296E2B5018ECF8
:103DEA001EF0120016C03BF017C03CF018C03DF0A0
:103DFA00120016C03EF017C03FF018C040F0120083
:103E0A004AB263EF1FF086EC1FF0090E12004AB2A5
:103E1A0067EF1FF086EC1FF00A0E12004AB26BEF32
:103E2A001FF089EC1FF0050E12004AB26FEF1FF067
:103E3A00AAEC1FF0000E12004AB273EF1FF0ACECAE
:103E4A001FF0010E12004AB277EF1FF0ACEC1FF020
:103E5A00020E12004AB27BEF1FF0ACEC1FF0010E0B
:103E6A001200428442500809F0EC1EF012000001D0
:103E7A00B297B2EC1FF0040E12000001B291000ECC
:103E8A00BD6F0E0E12004AB2B4EF1FF0030E1200FD
:103E9A004AB2B6EF1FF0050E12004AB2B8EF1FF091
:103EAA00010E1200010E9CEC1CF01200000E9CEC9C
:103EBA001CF01200166E16C092FF120098EC1FF04A
:103ECA00090E120098EC1FF00A0E12009BEC1FF06C
:103EDA00050E1200BAEC1FF0000E1200BCEC1FF027
:103EEA00010E1200BCEC1FF0020E1200BCEC1FF017
:103EFA00010E1200016E01C092FF12000E01CD8167
:103F0A001200978A97881200979A978812000E01D2
:103F1A00C59112000E01CD9112000E01CD91120031
:103F2A000E01CD811200978A97881200979A978876
:103F3A001200A1EC1FF012000E01CD931200F29AAA
:103F4A0012009250120097861200978412009782EC
:103F5A001200978012009250120097861200030EE8
:103F6A001200050E1200010E1200978412009782A9
:063F7A001200120012000B
:020000040020DA
:10000000FF0FFF0FFF0FFF0FFF0FFF0FFF0FFF0F80
:020000040030CA
:0C000000ECFFFFFF9FFFFFDFFFFFFFFF93
:00000001FF
