:0400000064EF00F0B9
:100008005F82FACFB2F0FBCFB3F0E9CFB4F0EACF1A
:10001800B5F0E1CFB6F0E2CFB7F0D9CFB8F0DACF8C
:10002800B9F0F3CFBAF0F4CFBBF0F6CFBCF0F7CF0E
:10003800BDF0F8CFBEF0F5CFBFF05FC0C0F060C034
:10004800C1F061C0C2F062C0C3F00E01C2BBCAAB4E
:1000580003D074EC18F00ED0F2BCC5A305D0CDA324
:1000680003D052EC19F006D0F2BCC5A103D0CDB133
:10007800C5EC0EF0C3C062F0C2C061F0C1C060F050
:10008800C0C05FF0BFC0F5FFBEC0F8FFBDC0F7FF3E
:10009800BCC0F6FFBBC0F4FFBAC0F3FFB9C0DAFFBB
:1000A800B8C0D9FFB7C0E2FFB6C0E1FFB5C0EAFFEC
:1000B800B4C0E9FFB3C0FBFFB2C0FAFF5F92110002
:0400C80077EF17F0C7
:100F000000010000000A00000064000000E8030087
:100F10000010270000A086010040420F0080969834
:100F20000000E1F50500CA9A3B00803F0020410027
:100F3000C842007A44401C4650C34724744997185D
:100F40004BBCBE4C6B6E4E03155079AD60F34971CE
:100F500000803FCDCC3DD7233C12833AB7D138C671
:100F60002737388635C0D633CC2B32708930E7DB53
:100F70002EE53C1E42A20D54656D7065726174755C
:100F800072613A00202020202000252E33660000C8
:100F9000440E00019E6F000E9F6F7FD3250EB11986
:100FA000D8B407D040C0D9FF41C0DAFFB1C0DFFFDD
:100FB00072D3000EA16F000EA06F42C0F6FF43C0B7
:100FC000F7FF000EF86E0800F5502E0AD8A433D0B3
:100FD000A18D424A432A000EAD6F000EAC6F1ED0A9
:100FE000ACC00FF0ADC010F0000E126E0A0E116E04
:100FF00019EC18F042C0F6FF43C0F7FF000EF86E80
:101000000800F5500F26000E1022D00E0F2400010C
:10101000AC6FFF0E1020AD6F424A432A42C0F6FF6C
:1010200043C0F7FF000EF86E0800F55095EC18F07D
:10103000D8A00AD0D5D7000E0001AD6F000EAC6F5E
:10104000A18902D0A18514D042C0F6FF43C0F7FFAA
:10105000424A432A000EF86E0800F5CFB1F00001B5
:10106000B151000AD8B427D3660AD8B4EBD715D348
:10107000070EA115D8B4D5D2A1A904D0000EAD6F2A
:10108000060EAC6F9EC0D9FF9FC0DAFFDECFAEF078
:10109000DECFAFF0DDCFB0F0030E9E27000E9F2312
:1010A000B0AF11D0AEC001F0AFC002F0B0C003F0DD
:1010B0003EEC18F001C0AEF002C0AFF003C0B0F0DB
:1010C000030E0001A013000EA76F000EA66FAE5115
:1010D000AF11B011D8B486D0820E476EFF0E486EA5
:1010E000AEC049F0AFC04AF0B0C04BF0B1C04CF058
:1010F000100E05D0D8904C324B324A324932E82E8D
:10110000F9D749504724A66F000E4820A76FA607BD
:10111000D8A0A707A6C00FF0A7C010F0000E126E4F
:10112000030E116E19EC18F00FC0A6F010C0A7F056
:10113000A6C007F0A7C008F0000E0A6E0A0E096EDE
:10114000C6EC14F007C0A6F008C0A7F00001A7AFD6
:1011500003D0A607D8A0A707A651000862EC0BF0A1
:1011600024C0A8F025C0A9F026C0AAF0A8C015F098
:10117000A9C016F0AAC017F0AEC018F0AFC019F0A1
:10118000B0C01AF058EC12F015C0A8F016C0A9F0C3
:1011900017C0AAF0A8C001F0A9C002F0AAC003F0CD
:1011A000000E046E800E056E3F0E066EF6EC13F018
:1011B000D8B005D00001A607D8A0A70713D0A8C0B3
:1011C00001F0A9C002F0AAC003F0000E046E200EC8
:1011D000056E410E066EF6EC13F0D8A003D00001A8
:1011E000A64BA72B0001ADBF06D0AD511BE10D0EE4
:1011F000AC5DD8B017D0AEC02EF0AFC02FF0B0C0ED
:1012000030F0AC518AEC0DF024C031F025C032F042
:1012100026C033F0DBEC0FF02EC0AEF02FC0AFF0E5
:1012200030C0B0F00001A7BF06D0A75120E10A0EE0
:10123000A65DD8B01CD0AE51AF11B011D8B456D005
:10124000AEC024F0AFC025F0B0C026F0DEEC11F047
:101250002450251026102710D8A448D00001A7BF7D
:1012600045D0A75104E1020EA65DD8A03FD0A8C08A
:1012700001F0A9C002F0AAC003F0700E046E890E3E
:10128000056E400E066EF6EC13F0D8B003D00001E8
:10129000F70E02D00001F80EA627FF0EA723A651D5
:1012A00062EC0BF024C0A8F025C0A9F026C0AAF07B
:1012B000AEC001F0AFC002F0B0C003F0A8C004F0AF
:1012C000A9C005F0AAC006F0B1EC10F001C0A2F070
:1012D00002C0A3F003C0A4F004C0A5F0000E0001FA
:1012E000AE6F000EAF6F000EB06F33D0AEC024F003
:1012F000AFC025F0B0C026F0DEEC11F024C0A2F0A3
:1013000025C0A3F026C0A4F027C0A5F0AEC03AF0D7
:10131000AFC03BF0B0C03CF0A2C009F0A3C00AF0DF
:10132000A4C00BF0A5C00CF088EC16F009C03DF08D
:101330000AC03EF00BC03FF099EC17F03AC0AEF097
:101340003BC0AFF03CC0B0F0000E0001A76F000E34
:10135000A66F010EB16F0A0EB119D8B41BD0B151EE
:10136000040D010EF324F66E0F0EF420F76EF86AEA
:10137000000EF8220900F550A25D0900F550A359AE
:101380000900F550A4590900F550A559D8A002D07C
:10139000B12BE1D7030EA015476E000EA115486EC4
:1013A00047504810D8B453D040C0D9FF41C0DAFFED
:1013B0002D0E4AD0A2C001F0A3C002F0A4C003F0D9
:1013C000A5C004F0B151040D010EF324F66E0F0E0A
:1013D000F420F76EF86A000EF8220900F5CF05F048
:1013E0000900F5CF06F00900F5CF07F00A00F5CFA8
:1013F00008F008EC15F001C0A8F002C0A9F003C085
:10140000AAF004C0ABF0A8C001F0A9C002F0AAC0C5
:1014100003F0ABC004F00A0E056E000E066E000E5F
:10142000076E000E086EF6EC15F001C0A8F002C0C1
:10143000A9F003C0AAF004C0ABF00001A851300F1E
:1014400040C0D9FF41C0DAFFDF6E404A412AB107F0
:10145000B129D8B40CD0AED740C0D9FF41C0DAFF13
:10146000300EDF6E404A412AA607D8A0A707A7BFC3
:1014700005D0A751F1E1A605D8B0EED7ADBF09D090
:10148000AD5104E1090EAC5DD8A003D0080EB16FD8
:1014900002D0ACC0B1F0B151AC5F000EB1BFFF0ED5
:1014A000AD5BB151D8B408D040C0D9FF41C0DAFF1C
:1014B0002E0EDF6E404A412AB15162EC0BF024C07F
:1014C0009BF025C09CF026C09DF0AEC018F0AFC0C8
:1014D00019F0B0C01AF09BC015F09CC016F09DC06A
:1014E00017F058EC12F015C024F016C025F017C004
:1014F00026F0DEEC11F024C0A2F025C0A3F026C037
:10150000A4F027C0A5F077D0A2C001F0A3C002F0DC
:10151000A4C003F0A5C004F00001B151040D010EF8
:10152000F324F66E0F0EF420F76EF86A000EF82220
:101530000900F5CF05F00900F5CF06F00900F5CF59
:1015400007F00A00F5CF08F008EC15F001C0A8F08C
:1015500002C0A9F003C0AAF004C0ABF0A8C001F01B
:10156000A9C002F0AAC003F0ABC004F00A0E056ED9
:10157000000E066E000E076E000E086EF6EC15F0FB
:1015800001C0A8F002C0A9F003C0AAF004C0ABF0EB
:101590000001A851300F40C0D9FF41C0DAFFDF6E13
:1015A000404A412AA2C001F0A3C002F0A4C003F047
:1015B000A5C004F0B151040D010EF324F66E0F0E18
:1015C000F420F76EF86A000EF8220900F5CF05F056
:1015D0000900F5CF06F00900F5CF07F00A00F5CFB6
:1015E00008F0F6EC15F001C0A2F002C0A3F003C0B1
:1015F000A4F004C0A5F00001B107B129D8B40CD003
:1016000083D740C0D9FF41C0DAFF300EDF6E404AB9
:10161000412AAC07D8A0AD07AC51AD11D8B43DD02C
:10162000F0D7AC51AD11D8A408D0A251A311A41188
:10163000A511D8A402D0AC4BAD2B800EB1BF7F0E4C
:10164000476EAC51B15DAD51800A4758D8B003D058
:10165000ACC0B1F010D0AD51800A476EB151AC5D55
:10166000800EB1BF7F0E4758D8B005D0B151AC6FD6
:10167000AD6BACBFAD07030EA015476E000EA115F4
:10168000486E47504810D8B408D040C0D9FF41C078
:10169000DAFF2D0EDF6E404A412A42C0F6FF43C0FA
:1016A000F7FF424A432A000EF86E0800F5CFB1F06A
:1016B000B151D8A473D440C0D9FF41C0DAFF000EA5
:1016C000DF6E12002A6E2AAE13D12A6C2A50800ACD
:1016D000120FD8A09AD0000E126E030E116E000EDB
:1016E0000A6E0A0E096E000E046E640E036E2A5016
:1016F000016E026A01BE020688EC15F001C007F017
:1017000002C008F0C6EC14F0090E07240F6E000E9C
:101710000820106E19EC18F0500E0F24F66E0F0E04
:101720001020F76EF86A000EF8220900F5CF18F0C5
:101730000900F5CF19F00A00F5CF1AF0000E0A6E75
:10174000640E096E2A50076E086A07BE0806C6ECCA
:1017500014F0120E07240F6E000E0820106E000EFB
:10176000126E030E116E19EC18F0500E0F24F66E67
:101770000F0E1020F76EF86A000EF8220900F5CF60
:1017800015F00900F5CF16F00A00F5CF17F058EC68
:1017900012F015C027F016C028F017C029F027C096
:1017A00015F028C016F029C017F0000E126E030EB7
:1017B000116E000E046E0A0E036E2A50016E026A4C
:1017C00001BE020688EC15F001C00FF002C010F057
:1017D00019EC18F0500E0F24F66E0F0E1020F76E55
:1017E000F86A000EF8220900F5CF18F00900F5CFCD
:1017F00019F00A00F5CF1AF058EC12F015C024F0D9
:1018000016C025F017C026F012002A50800A750F66
:10181000D8A059D0000E0A6E0A0E096E2A50076E23
:10182000086A07BE0806C6EC14F0090E07240F6EFE
:10183000000E0820106E000E126E030E116E19ECD1
:1018400018F0500E0F24F66E0F0E1020F76EF86A87
:10185000000EF8220900F5CF15F00900F5CF16F0BB
:101860000A00F5CF17F0000E126E030E116E000E77
:10187000046E0A0E036E2A50016E026A01BE020651
:1018800088EC15F001C00FF002C010F019EC18F050
:10189000500E0F24F66E0F0E1020F76EF86A000E31
:1018A000F8220900F5CF18F00900F5CF19F00A0069
:1018B000F5CF1AF058EC12F015C024F016C025F040
:1018C00017C026F012002A50030D500EF324F66EB6
:1018D0000F0EF420F76EF86A000EF8220900F5CF1B
:1018E00024F00900F5CF25F00A00F5CF26F012000C
:1018F0002A50800A120FD8A09AD0000E126E030E42
:10190000116E000E0A6E0A0E096E000E046E640E51
:10191000036E2A50016E026A01BE020688EC15F0C1
:1019200001C007F002C008F0C6EC14F0090E07244D
:101930000F6E000E0820106E19EC18F0290E0F24FF
:10194000F66E0F0E1020F76EF86A000EF8220900EE
:10195000F5CF18F00900F5CF19F00A00F5CF1AF00D
:10196000000E0A6E640E096E2A50076E086A07BEE2
:101970000806C6EC14F0120E07240F6E000E0820A5
:10198000106E000E126E030E116E19EC18F0290E77
:101990000F24F66E0F0E1020F76EF86A000EF82274
:1019A0000900F5CF15F00900F5CF16F00A00F5CFC4
:1019B00017F058EC12F015C027F016C028F017C029
:1019C00029F027C015F028C016F029C017F0000E26
:1019D000126E030E116E000E046E0A0E036E2A5074
:1019E000016E026A01BE020688EC15F001C00FF01C
:1019F00002C010F019EC18F0290E0F24F66E0F0E2D
:101A00001020F76EF86A000EF8220900F5CF18F0E2
:101A10000900F5CF19F00A00F5CF1AF058EC12F0D2
:101A200015C024F016C025F017C026F012002A5069
:101A3000800A750FD8A059D0000E0A6E0A0E096EE2
:101A40002A50076E086A07BE0806C6EC14F0090E95
:101A500007240F6E000E0820106E000E126E030E8B
:101A6000116E19EC18F0290E0F24F66E0F0E1020CF
:101A7000F76EF86A000EF8220900F5CF15F009009C
:101A8000F5CF16F00A00F5CF17F0000E126E030E18
:101A9000116E000E046E0A0E036E2A50016E026A69
:101AA00001BE020688EC15F001C00FF002C010F074
:101AB00019EC18F0290E0F24F66E0F0E1020F76E99
:101AC000F86A000EF8220900F5CF18F00900F5CFEA
:101AD00019F00A00F5CF1AF058EC12F015C024F0F6
:101AE00016C025F017C026F012002A50030D290E4B
:101AF000F324F66E0F0EF420F76EF86A000EF8224B
:101B00000900F5CF24F00900F5CF25F00A00F5CF44
:101B100026F012002D6E6D0E2D64A8D0000E126EF0
:101B2000030E116E000E0A6E0A0E096E000E046E90
:101B3000640E036E2DC001F0026A88EC15F001C03E
:101B400007F002C008F0C6EC14F0090E07240F6E6F
:101B5000000E0820106E19EC18F0500E0F24F66ECF
:101B60000F0E1020F76EF86A000EF8220900F5CF6C
:101B700018F00900F5CF19F00A00F5CF1AF0000EA1
:101B80000A6E640E096E2DC007F0086AC6EC14F0E8
:101B9000120E07240F6E000E0820106E000E126E3B
:101BA000030E116E19EC18F0500E0F24F66E0F0E86
:101BB0001020F76EF86A000EF8220900F5CF15F034
:101BC0000900F5CF16F00A00F5CF17F058EC12F027
:101BD00015C02AF016C02BF017C02CF0000E126EA4
:101BE000030E116E000E046E0A0E036E2DC001F07E
:101BF000026A88EC15F001C00FF002C010F019EC79
:101C000018F0500E0F24F66E0F0E1020F76EF86AC3
:101C1000000EF8220900F5CF18F00900F5CF19F0F1
:101C20000A00F5CF1AF02AC015F02BC016F02CC010
:101C300017F058EC12F015C027F016C028F017C0A6
:101C400029F027C015F028C016F029C017F0000EA3
:101C5000186E000E196E3F0E1A6E58EC12F015C079
:101C600024F016C025F017C026F012000A0E2D64CD
:101C700069D0000E126E030E116E000E046E0A0E75
:101C8000036E2DC001F0026A88EC15F001C00FF060
:101C900002C010F019EC18F0500E0F24F66E0F0E63
:101CA0001020F76EF86A000EF8220900F5CF18F040
:101CB0000900F5CF19F00A00F5CF1AF0000E0A6EF0
:101CC0000A0E096E2DC007F0086AC6EC14F0090E62
:101CD00007240F6E000E0820106E000E126E030E09
:101CE000116E19EC18F0500E0F24F66E0F0E102026
:101CF000F76EF86A000EF8220900F5CF15F009001A
:101D0000F5CF16F00A00F5CF17F058EC12F015C019
:101D10002AF016C02BF017C02CF02AC015F02BC0EB
:101D200016F02CC017F0000E186E000E196E3F0E44
:101D30001A6E58EC12F015C024F016C025F017C02A
:101D400026F012002D50030D500EF324F66E0F0EE8
:101D5000F420F76EF86A000EF8220900F5CF15F0AE
:101D60000900F5CF16F00A00F5CF17F0000E186E37
:101D7000000E196E3F0E1A6E58EC12F015C024F0CA
:101D800016C025F017C026F012000E01CD9196AEB8
:101D9000EFD0969E000E5B6E000E526E000E536EDC
:101DA0001200000164B3120062C052F063C053F02D
:101DB00062C0D9FF63C0DAFFDF505A6E20EE01F037
:101DC0006251D9266351DA22DECF54F0DDCF55F0CF
:101DD000060E6227000E63239B0E621908E1000EB7
:101DE0006319D8A404D0950E626F000E636F6491DE
:101DF0006051621904E161516319D8B4648397801A
:101E0000020E5B6E12009782020E5B6E120097ACA0
:101E100006D00001662B040E4BEC19F01200D8908E
:101E20005D30026E5C30016E0150926E5CA003D09A
:101E30000B0E5B6E1200030E5B6E120097AC06D0A9
:101E40000001662B040E4BEC19F0120097825CC067
:101E500001F05DC002F002C001F0026A060E011638
:101E6000000E0216F00E01105C6E02505D6E5C807A
:101E7000010E586E020E5B6E12005804D8B41AD0D0
:101E800054C0D9FF55C0DAFFDECF5CF0DDCF5DF086
:101E900020EE03F05450D9265550DA22DECF50F010
:101EA000DDCF51F020EE02F05450D9265550DA2201
:101EB000DF50596E5CC092FF5CA003D0050E5B6ED4
:101EC0001200030E5B6E120097AC07D00001662B68
:101ED000979C050E4BEC19F0120059065928D8A40E
:101EE0000ED0060E5426000E55225A2E04D0000E97
:101EF0004BEC19F012009782020E5B6E120050C07C
:101F0000D9FF51C0DAFFDF50926E504A512A1200B9
:101F100097AC07D00001662B040E4BEC19F0979C90
:101F200012009786080E5B6E1200080E5B6E978695
:101F3000120050C0D9FF51C0DAFF92CFDFFF504AE4
:101F4000512A010E595ED8B404D0979A060E5B6EE2
:101F500003D0978AE5EC18F097881200000E4BEC3E
:101F600019F012000001662B060E4BEC19F012005E
:101F70005B50000AD8B415D7010AD8B444D7030A75
:101F8000D8B47BD7010AD8B49FD7070AD8B4E6D70C
:101F9000010AD8B4BDD7030AD8B4C7D7010AD8B448
:101FA000DDD70F0AD8B4C5D7020AD8B430D7010A92
:101FB000D8B444D7D7D730C034F0356A366A2F3416
:101FC000343601E335803450396E33C034F0356A2D
:101FD000366A3234343601E335803450386E395045
:101FE000D8B40BD03850395CD8B00ED03950000876
:101FF0003824346E180E346407D031C02EF032C04D
:102000002FF033C030F012003850D8B40BD0395014
:10201000385CD8B00ED0385000083924346E180E11
:10202000346407D02EC02EF02FC02FF030C030F017
:102030001200060E376E30BE378E33BE378C2F8EB1
:10204000FF0E2E16FF0E2F16000E3016328EFF0ECC
:102050003116FF0E3216000E33163850395CD8B0E8
:102060001BD0D890313632363336380639503818CE
:10207000D8B40DD0370637C034F0070E3416D8B4B4
:1020800006D0EFD7D89030322F322E32392A38503E
:102090003918D8B41FD0F6D73950385CD8B01AD018
:1020A000D8902E362F363036390639503818D8B4F5
:1020B0000DD0370637C034F0070E3416D8B406D02A
:1020C000EFD7D890333232323132382A385039187B
:1020D000D8A4F7D737AE0CD0FF0E2E1AFF0E2F1A4A
:1020E000FF0E301A010E2E26000E2F22000E302277
:1020F00037AC0CD0FF0E311AFF0E321AFF0E331A16
:10210000010E3126000E3222000E3322000E376EF1
:102110002E5031262F5032223050332233AE0ED083
:10212000FF0E311AFF0E321AFF0E331A010E31263E
:10213000000E3222000E3322010E376E31C001F044
:1021400032C002F033C003F039C004F037C005F0EC
:102150009FEC13F001C02EF002C02FF003C030F04E
:10216000120003C007F0086A096A0234073601E367
:10217000088007500F6E0F50D8A409D0000E016ED2
:10218000000E026E000E036E000E046E120006C0FA
:1021900007F0086A096A0534073601E3088007502A
:1021A0000E6E0E50D8A409D0000E016E000E026E05
:1021B000000E036E000E046E1200028EFF0E01165A
:1021C000FF0E0216000E0316058EFF0E0416FF0EFC
:1021D0000516000E0616000E0A6E000E0B6E000E9F
:1021E0000C6E000E0D6E7F0E0F5E0E50980F0F5E80
:1021F000180E0E6ED8900A360B360C360D3604507B
:10220000015C0550025806500358D8A007D004506E
:10221000015E0550025A0650035A0A80D8900136D2
:10222000023603360E2EE6D70FAE16D00F50800AB8
:10223000970FD8B009D0000E016E000E026E000E8E
:10224000036E000E046E1200D8900D320C320B3269
:102250000A320F3EF9D715D0170E0F640FD0000EBB
:10226000016E000E026E000E036E000E046E120070
:10227000D8900A360B360C360D360F060F50D8A400
:10228000F7D70AC001F00BC002F00CC003F00DC07C
:1022900004F01200033404340C6E0C50D8A409D09E
:1022A000000E016E000E026E000E036E000E046E34
:1022B0001200063407340B6E0B50D8A409D0000E60
:1022C000016E000E026E000E036E000E046E120010
:1022D000038EFF0E0116FF0E0216FF0E0316000EF0
:1022E0000416068EFF0E0416FF0E0516FF0E0616C8
:1022F000000E0716000E076E000E086E000E096E27
:10230000000E0A6E7F0E0C5E0B50A00F0C5E200EAE
:102310000B6ED8900736083609360A360450015C31
:10232000055002580650035807500458D8A009D049
:102330000450015E0550025A0650035A0750045AD1
:102340000780D89001360236033604360B2EE1D7CB
:102350000CAE16D00C50800A9F0FD8B009D0000EDA
:10236000016E000E026E000E036E000E046E12006F
:10237000D8900A320932083207320C3EF9D715D00C
:102380001F0E0C640FD0000E016E000E026E000EC8
:10239000036E000E046E1200D89007360836093618
:1023A0000A360C060C50D8A4F7D707C001F008C0B5
:1023B00002F009C003F00AC004F0120026C028F0A1
:1023C000296A2A6A2534283601E329802850326E8A
:1023D0003250D8A409D0000E246E000E256E000ED7
:1023E000266E000E276E1200170E286E24C029F0EC
:1023F00025C02AF026C02BF028282C6E04D0D890B7
:102400002B322A3229322C2EFAD729502D6E258EC6
:10241000FF0E2416FF0E2516000E261624502E6ED3
:1024200025502F6E2650306E316A8E0E325E32AEDF
:1024300016D03250800A8F0FD8B009D0000E246E0B
:10244000000E256E000E266E000E276E1200D8902C
:10245000313230322F322E32323EF9D715D0170EAC
:1024600032640FD0000E246E000E256E000E266E14
:10247000000E276E1200D8902E362F3630363136A9
:1024800032063250D8A4F7D72D50D8B408D0311E18
:10249000301E2F1E2E6C000E2F22302231222EC015
:1024A00024F02FC025F030C026F031C027F01200F4
:1024B00017C01BF01C6A1D6A16341B3601E31C8012
:1024C0001B501E6E1E50D8A407D0000E156E000EB5
:1024D000166E000E176E12001AC01BF01C6A1D6AE1
:1024E00019341B3601E31C801B50236E2350D8A4E3
:1024F00007D0000E156E000E166E000E176E12003D
:1025000023507B0F1E2617C023F01A50231A800E6B
:102510002316168E198EFF0E1816FF0E1916000EB2
:102520001A16000E1F6E000E206E000E216E070E92
:10253000226E15A006D018501F26195020221A50BE
:102540002122D890173216321532D8901836193603
:102550001A36222EEED7090E226E15A006D018507C
:102560001F26195020221A502122D89017321632D5
:102570001532D890213220321F32222EEED71FC0C2
:1025800001F020C002F021C003F01EC004F023C0FF
:1025900005F09FEC13F001C015F002C016F003C067
:1025A00017F0120026C02AF02B6A2C6A25342A362E
:1025B00001E32B802A50316E3150D8A407D0000E91
:1025C000246E000E256E000E266E120029C02AF021
:1025D0002B6A2C6A28342A3601E32B802A50326E6B
:1025E0003250D8A407D0000E246E000E256E000EC7
:1025F000266E1200000E2E6E000E2F6E000E306E34
:102600003250890F315E26C032F02950321A800EC6
:102610003216258EFF0E2416FF0E2516000E2616E6
:10262000288EFF0E2716FF0E2816000E2916180EEC
:102630002D6ED8902E362F3630362750245C2850F9
:10264000255829502658D8A007D02750245E285056
:10265000255A2950265A2E80D890243625362636DB
:102660002D2EE7D72EC001F02FC002F030C003F0AE
:1026700031C004F032C005F09FEC13F001C024F02B
:1026800002C025F003C026F01200000E876E000E77
:10269000866E000E836E000E846E000E856E040E34
:1026A0008C6E886889688A68000E8B6E050E0F0133
:1026B000216FEF0E196F000E266F040E2E6F116939
:1026C000000E256F000E2D6F000E186F000E106F9C
:1026D000000E206F000E2C6F000E0F6F000E176F94
:1026E000000E1F6F000E246F000EF2BE010E0001DF
:1026F000C46FF29E550E0E01A06FAA0EA06FA0919E
:10270000B781B783B795B797B7890F0EFA6F100ED9
:10271000FB6FAE91AE93AE85AE87AE99B891B8938C
:10272000B885B897B889550EA06FAA0EA06FA08182
:102730000001C4A102D0F28E1200F29E12000450D9
:10274000D8B405D0015002100310D8A40CD0000E4C
:10275000016E000E026E000E036E1200042AD89065
:10276000033202320132000E0114066E000E021412
:10277000076EFE0E0314086E065007100810D8B43A
:102780000CD0ECD7042A010E0126000E0222000E06
:102790000322D890033202320132000E0114066E79
:1027A000000E0214076EFF0E0314086E0650071089
:1027B0000810D8B406D0E6D70406D8900136023601
:1027C000033602BE03D0020E0460F6D704A0029EB8
:1027D000D8900432045003120550D8A4038E01C0CF
:1027E00001F002C002F003C003F0120003AE16D0E5
:1027F00001C007F002C008F003C009F0071E081E60
:10280000091E072A000E08220922000E0724016E65
:10281000000E0820026E800E0920036E06AE16D050
:1028200004C007F005C008F006C009F0071E081E26
:10283000091E072A000E08220922000E0724046E32
:10284000000E0820056E800E0920066E000E011A8B
:10285000000E021A800E031A000E041A000E051A4A
:10286000800E061A0450015C0550025806500358A9
:10287000D8B002D0D8901200D88012000AC001F05F
:102880000BC002F00CC003F0000E046E700E056E5B
:10289000420E066EF6EC13F0D8B05E80000E016EAC
:1028A000480E026E420E036E0AC004F00BC005F023
:1028B0000CC006F0F6EC13F0D8B05EA001D05E902C
:1028C000000E016EA00E026E410E036E0AC004F0EF
:1028D0000BC005F00CC006F0F6EC13F0D8B05E8229
:1028E0000AC001F00BC002F00CC003F0000E046E31
:1028F000F00E056E410E066EF6EC13F0D8A0120035
:102900005EA212005E921200080E0001D66F110E38
:102910000001C96F3A0EE82EFED7C92FFCD700F090
:10292000000E0CEC19F0000E03EC19F09096909448
:1029300090929090030EB9EC17F0E10E00D0E82EC3
:10294000FDD7030EB9EC17F0E10E00D0E82EFDD74D
:10295000030EB9EC17F00C0EE82EFED700F0020EB5
:10296000B9EC17F00001D6512009FAEC18F0040E6A
:102970000001686F24EC19F015EC19F0020E00014B
:10298000676F67510409FAEC18F01200000E0C6E24
:102990000AAE06D0096C0A1ED8B00A2A010E0C6EC7
:1029A00008AE06D0076C081ED8B0082A010E0C1A13
:1029B000000E0E6E000E0D6E09500A10D8B41CD019
:1029C000010E0B6E04D0D89009360A360B2A0AAED7
:1029D000FAD7D8900D360E360950075C0A500858C1
:1029E000D8A005D00950075E0A50085A0D80D8902B
:1029F0000A3209320B2EEDD70C50D8B404D00D6C2E
:102A00000E1ED8B00E2A0DC007F00EC008F012003E
:102A1000000E096E000E0A6E000E0B6E000E0C6E9C
:102A20000550061007100810D8B42AD0010E0D6EFC
:102A300006D0D89005360636073608360D2A08AE79
:102A4000F8D7D89009360A360B360C360550015C9B
:102A5000065002580750035808500458D8A009D00F
:102A60000550015E0650025A0750035A0850045A96
:102A70000980D89008320732063205320D2EE1D790
:102A800009C001F00AC002F00BC003F00CC004F052
:102A90001200010E066E000E53EC17F0C0EC15F09C
:102AA00033C04DF034C04EF035C04FF0690E406E6B
:102AB000000E416E8A0E426E0F0E436E4DC044F002
:102AC0004EC045F04FC046F0C8EC07F0690E066EE8
:102AD000000E076E5AEC16F0000E32EC19F0840E60
:102AE000066E0F0E076E5AEC16F04DC00AF04EC07F
:102AF0000BF04FC00CF03EEC14F05EA202D09088B8
:102B000001D090985EA002D0908A01D0909A1200D5
:102B1000000E066E02AE06D0016C021ED8B0022A6C
:102B2000010E066E04AE04D0036C041ED8B0042A55
:102B300003500410D8B418D0010E056E04D0D890FC
:102B400003360436052A04AEFAD70350015C04505C
:102B50000258D8A004D00350015E0450025AD89005
:102B600004320332052EF1D70650D8B404D0016CDC
:102B7000021ED8B0022A01C001F002C002F0120009
:102B8000000E62EC18F0011E021E014A022AFF0E1E
:102B90000124366E030E0220376E000E186EC80E2A
:102BA000196E420E1A6E36C009F037C00AF050ECAA
:102BB00018F009C015F00AC016F00BC017F058EC59
:102BC00012F015C024F016C025F017C026F0C00E74
:102BD000276E7F0E286E440E296ED2EC12F024C0B0
:102BE00033F025C034F026C035F012000550061031
:102BF00007100810D8B424D0010E096E06D0D89062
:102C00000536063607360836092A08AEF8D70550C5
:102C1000015C065002580750035808500458D8A0C9
:102C200008D00550015E0650025A0750035A08505A
:102C3000045AD8900832073206320532092EE7D7F7
:102C400001C001F002C002F003C003F004C004F0B0
:102C50001200000E0101006F18D0C9C0F6FFCAC0F3
:102C6000F7FF000EF86E0E0EF76403D00800F55063
:102C700005D0F6CFE9FFF7CFEAFFEF50F1EC18F0FF
:102C80000001C94BCA2B0101002BC9C0F6FFCAC005
:102C9000F7FF000EF86E0E0EF76403D00800F55033
:102CA00005D0F6CFE9FFF7CFEAFFEF500009D8B41F
:102CB0001200D3D7000E086E16D006C0F6FF07C06C
:102CC000F7FF000EF86E0E0EF76403D00800F55003
:102CD00005D0F6CFE9FFF7CFEAFFEF5032EC19F05D
:102CE000064A072A082A06C0F6FF07C0F7FF000EAB
:102CF000F86E0E0EF76403D00800F55005D0F6CF3D
:102D0000E9FFF7CFEAFFEF500009D8B41200D5D79A
:102D10008E0E116E06D0D8900C320B320A32093268
:102D2000112A000E09140D6E000E0A140E6E000E0C
:102D30000B140F6EFF0E0C14106E0D500E100F10B2
:102D40001010D8A4E8D709C001F00AC002F00BC0E7
:102D500003F011C004F0000E056E9FEC13F001C0EB
:102D600009F002C00AF003C00BF012000001CA6FA4
:102D700018D00001CA51800FFAEC18F012000001BF
:102D8000CA51C00FFAEC18F012000001CA51940F9A
:102D9000FAEC18F012000001CA51D40FFAEC18F046
:102DA00012000001C951000AD8B4E3D7010AD8B40F
:102DB000E6D7030AD8B4E9D7010AD8A41200EBD7A2
:102DC0000101006F070E010100170039E842F80BFE
:102DD0004009FAEC18F0000E0101026F000E016FBD
:102DE00002BF06D0025114E1080E015DD8B01200F6
:102DF00001510001C925D96E010102510001CA210A
:102E0000DA6EDF50F1EC18F00101014B022BE8D72C
:102E10001200C0EC18F0920E0001C46F2A0EC56FAC
:102E2000000EC66F1DEC19F05E925E90F28E84EC7F
:102E300014F0CB0E0001C96F000ECA6F000EE0EC5B
:102E400016F0000E0001C96F000EB6EC16F0770EFA
:102E50000001C96F0F0ECA6F29EC16F0FFD7000EE4
:102E60006A6E000E6B6E000E6C6E000E6D6E000EC4
:102E7000686E000E696E000E666E000E0F015F6FC9
:102E8000000E5D6F000E596F000E5A6F000E5B6FE3
:102E9000000E656E000E586F000E566F000E576FD5
:102EA000840E606E1200076E14D00750800F2BEC5A
:102EB00019F012000750C00F2BEC19F01200075048
:102EC000940F2BEC19F012000750D40F2BEC19F0D3
:102ED00012000650000AD8B4E8D7010AD8B4EAD7DD
:102EE000030AD8B4ECD7010AD8A41200EDD78E0E8D
:102EF000F66E320EF76E000EF86E00EECBF010EEAE
:102F000008F00900F5CFEEFFE550E150FAE100EEE0
:102F100060F03B0EEE6AE806FDE15E6A00EE50F0FE
:102F20000E0EEE6AE806FDE15F905F92000109EF88
:102F300017F03D503E103F10D8B406D0000E3D1A99
:102F4000000E3E1A800E3F1A3AC02EF03BC02FF002
:102F50003CC030F03DC031F03EC032F03FC033F0F5
:102F6000DBEC0FF02EC03AF02FC03BF030C03CF04D
:102F700012000001C56F0001C5A102D0908601D0EA
:102F80009096C5A302D0908401D09094C5A502D09C
:102F9000908201D09092C5A702D0908001D09090ED
:102FA000A4EC18F01200950E0001626F000E636F22
:102FB000950E606F000E616F64836491000E666F02
:102FC000C00E956E280E966E000E986E030E936ED0
:102FD0000E01CD91C5811200026E02A002D0908632
:102FE00001D0909602A202D0908401D0909402A4C5
:102FF00002D0908201D0909202A602D0908001D09F
:103000009090B2EC18F01200400ED66EF90ED46E0D
:10301000000ED36E0E01CA9BC28BA20E0001C46FBC
:10302000320EC56F000EC66F1DEC19F0800ED56E06
:1030300012000F501102F3CF13F0F4CF14F00F5021
:103040001202F350142610501102F350142613C02C
:103050000FF014C010F012000001D351D411D5119B
:10306000D8B4120001D812000500FA6ED351FD6EDB
:10307000D451FE6ED551FF6EFA501200015002106D
:103080000310D8B406D0000E011A000E021A800EEA
:10309000031A01C001F002C002F003C003F01200E5
:1030A00009C001F00AC002F0036A8E0E046E000E21
:1030B000056E9FEC13F001C009F002C00AF003C0D6
:1030C0000BF01200056E05C05FFF608E609C608093
:1030D00060B0FED76450046E036A63500324016E2F
:1030E000000E0420026E12000E01CA9B564A572A97
:1030F000575004E1640E565CD8A012002CEC18F076
:10310000000E576E000E566E12000001C76F0001D0
:10311000C6510CEC19F00001C7390F0BB9EC17F0D0
:103120000001C751B9EC17F01200036E000E026ED9
:103130003A0E036005D02F0E036402D0010E026E1A
:1031400002C001F001301200000E03EC19F0010E74
:1031500003EC19F0000E03EC19F0080EE82EFED770
:1031600000F01200000E39EC19F0010E39EC19F0E4
:10317000000E39EC19F0080EE82EFED700F0120010
:103180004FEC19F045EC13F0CDEC18F0D3EC17F040
:103190002FEC17F004EC18F01200620E0E01D86F3D
:1031A000000EDA6F000EDC6F020EDE6F000EDD6FB8
:1031B0001200046E035040EC19F004380F0BECECD5
:1031C00017F00450ECEC17F01200060E5426000E17
:1031D00055225A2E03D0040E5B6E1200010E5B6E58
:1031E00012000001C86F010E0001C66FC85185ECC6
:1031F00018F012000001C86F000E0001C66FC85120
:1032000085EC18F012000001C46F0001C4B102D0B7
:10321000919201D0918212000001C46F0001C4B1EB
:1032200002D0919001D091801200010EFAEC18F0BA
:10323000A60EE82EFED700D01200C4C0D3F0C5C041
:10324000D4F0C6C0D5F012000001688568510809A5
:10325000FAEC18F01200056E000E036E0550D9EC62
:1032600018F01200056E010E036E0550D9EC18F02F
:103270001200016E01B002D0919201D09182120031
:10328000016E01B002D0919001D091801200181807
:10329000000F0808080F9784000E5B6E1200F29A68
:0632A000120012001200F2
:020000040020DA
:10000000FF0FFF0FFF0FFF0FFF0FFF0FFF0FFF0F80
:020000040030CA
:0C000000ECFF3FFF9FFFFFDFFFFFFFFF53
:00000001FF
