:0400000074EF00F0A9
:100008005C82FACF2AF0FBCF2BF0E9CF2CF0EACFB5
:100018002DF0E1CF2EF0E2CF2FF0D9CF30F0DACFAC
:1000280031F0F3CF32F0F4CF33F0F6CF34F0F7CF2E
:1000380035F0F8CF36F0F5CF37F05CC038F05DC05A
:1000480039F05EC03AF05FC03BF00E01C2B1CAA100
:1000580003D038EC0CF01ED0F2AC1CD0C5B9CDA939
:100068000AD001D817D00500FA6E5450FD6E5550CD
:10007800FE6E56500CD0C5BBCDAB0CD001D80AD003
:100088000500FA6E5150FD6E5250FE6E5350FF6ED1
:10009800FA5012003BC05FF03AC05EF039C05DF024
:1000A80038C05CF037C0F5FF36C0F8FF35C0F7FF41
:1000B80034C0F6FF33C0F4FF32C0F3FF31C0DAFFBB
:1000C80030C0D9FF2FC0E2FF2EC0E1FF2DC0EAFFEC
:1000D8002CC0E9FF2BC0FBFF2AC0FAFF5C9211007D
:0400E800ABEF0BF07F
:100F00000001000A006400E8031027256920256914
:100F1000200A0000BF0E0001C46F000EC56F96D0FE
:100F2000250ECA19D8B409D0BBC0D9FFBCC0DAFF9E
:100F3000CAC0DFFFBB4BBC2B89D0000EC66FBDC043
:100F4000F6FFBEC0F7FFBD4BBE2B000EF86E0800CB
:100F5000F5CFCAF0CA51000AD8B486D0640AD8B412
:100F600003D00D0AD8A472D0C4C0D9FFC5C0DAFF1F
:100F7000DECFC8F0DDCFC9F0020EC427000EC523B6
:100F8000C9AF06D0030EC613C86DC91FD8B0C92B90
:100F9000010ECA6F050ECA19D8B415D0CA51020D78
:100FA000010EF324F66E0F0EF420F76EF86A000EB1
:100FB000F8220900F550C85D0900F550C959D8A0BC
:100FC00002D0CA2BE7D7C6C0C3F0030EC317D8B4EC
:100FD00008D0BBC0D9FFBCC0DAFF2D0EDF6EBB4B03
:100FE000BC2BCAC0C7F02ED0C751020D010EF3248E
:100FF000F66E0F0EF420F76EF86A000EF822090064
:10100000F5CFB1F00A00F5CFB2F0C8C0AFF0C9C05B
:10101000B0F09AEC0AF0AFC0B6F0B0C0B7F0000E76
:101020000001B96F0A0EB86FEDEC0AF00001B6517D
:10103000300FCA6FBBC0D9FFBCC0DAFFCAC0DFFF28
:10104000BB4BBC2BC707C729D8A4CED7BDC0F6FF62
:10105000BEC0F7FFBD4BBE2B000EF86E0800F5CFEB
:10106000CAF0CA51D8A45CD7BBC0D9FFBCC0DAFF54
:10107000000EDF6E12001DC01FF0206A216A1C34B2
:101080001F3601E320801F50296E2950D8A409D0B3
:10109000000E1B6E000E1C6E000E1D6E000E1E6EEE
:1010A0001200170E1F6E1BC020F01CC021F01DC0C7
:1010B00022F01F28236E04D0D89022322132203211
:1010C000232EFAD72050246E1C8EFF0E1B16FF0E07
:1010D0001C16000E1D161B50256E1C50266E1D5032
:1010E000276E286A8E0E295E29AE16D02950800AF6
:1010F0008F0FD8B009D0000E1B6E000E1C6E000EB4
:101100001D6E000E1E6E1200D89028322732263235
:101110002532293EF9D715D0170E29640FD0000EBD
:101120001B6E000E1C6E000E1D6E000E1E6E120059
:10113000D890253626362736283629062950D8A4B1
:10114000F7D72450D8B408D0281E271E261E256C99
:10115000000E26222722282225C01BF026C01CF0C4
:1011600027C01DF028C01EF012000EC012F0136A36
:10117000146A0D34123601E313801250156E1550A7
:10118000D8A407D0000E0C6E000E0D6E000E0E6E71
:10119000120011C012F0136A146A1034123601E3FF
:1011A000138012501A6E1A50D8A407D0000E0C6E7D
:1011B000000E0D6E000E0E6E12001A507B0F1526DB
:1011C0000EC01AF011501A1A800E1A160D8E108EBB
:1011D000FF0E0F16FF0E1016000E1116000E166EE3
:1011E000000E176E000E186E070E196E0CA006D0BA
:1011F0000F5016261050172211501822D8900E3278
:101200000D320C32D8900F3610361136192EEED71B
:10121000090E196E0CA006D00F501626105017227A
:1012200011501822D8900E320D320C32D89018324C
:1012300017321632192EEED716C001F017C002F081
:1012400018C003F015C004F01AC005F098EC09F0BE
:1012500001C00CF002C00DF003C00EF01200F2A0AD
:101260000AD0F290000E026E000E016E09EC0CF036
:1012700043EC0CF01200F28041EC0CF0CDEC0BF0E2
:1012800001C0ADF002C0AEF0DE0E0F6EB00E106EFB
:101290003C0E116EADC009F0AEC00AF099EC0BF037
:1012A00009C00CF00AC00DF00BC00EF0B5EC08F050
:1012B0000CC01BF00DC01CF00EC01DF03BEC08F084
:1012C0004E50020D600EF324D96E000EF420DA6E3B
:1012D0001BC0DEFF1CC0DDFF4E2A4E50020D600E0B
:1012E000F324D96E000EF420DA6EDE504C26DD5069
:1012F0004D22130E4E18D8A414D0000E4E6E4CC0C2
:1013000001F04DC002F0000E046E140E036EC4EC2A
:101310000AF001C088F002C089F0000E4D6E000E88
:101320004C6E8E821A0EE82EFED700D08E921200DE
:101330000450D8B405D0015002100310D8A40CD02A
:10134000000E016E000E026E000E036E1200042AE3
:10135000D890033202320132000E0114066E000EE4
:101360000214076EFE0E0314086E065007100810D4
:10137000D8B40CD0ECD7042A010E0126000E0222AC
:10138000000E0322D890033202320132000E011403
:10139000066E000E0214076EFF0E0314086E065050
:1013A00007100810D8B406D0E6D70406D890013646
:1013B0000236033602BE03D0020E0460F6D704A044
:1013C000029ED8900432045003120550D8A4038E14
:1013D00001C001F002C002F003C003F01200DDEC16
:1013E0000BF05E0E0001AF6F120EB06F000EB16F0A
:1013F00023EC0CF0F280F28EF28C3DEC0CF08E823D
:101400001A0EE82EFED700D08E92090E0001CC6F86
:101410001E0ECB6FE40EE82EFED7CB2FFCD7CC2FC1
:10142000FAD700F08D0E0001BB6F000EBC6F0B0EE3
:10143000BD6F0F0EBE6FADC0BFF0AEC0C0F088C0B4
:10144000C1F089C0C2F08AEC07F08D0E0001B06FC8
:10145000000EB16F31EC0BF0D8D7000E876E000E86
:10146000866E000E836E000E846E000E856E070E73
:101470008C6E8868FD0E896EBF0E8A6E8B680F01B8
:1014800026693F0E216FFC0E196F070E2E6F116932
:10149000000E256F000E2D6F000E186F000E106FDE
:1014A000000E206F000E2C6F000E0F6F000E176FD6
:1014B000000E1F6F000E246F0E01A191A193A19544
:1014C000A187A199B581B583B585B597B589090E71
:1014D000FD6F12000E01C59B040E0001AF6F170EC9
:1014E000B06F000EB16F31EC0CF00E01C599D20E49
:1014F0000001AF6F160EB06F000EB16F2AEC0CF04A
:10150000080E9F6E900E9D6E240E9E6E400E9B6E7A
:10151000030E9C6E000E00018C6F000E8B6F080E88
:10152000CD6F000E8A6F000E506E000E4F6E0E01D2
:10153000C58B1200000E0001B46F000EB36FB151E5
:10154000B211D8B41CD0010EB56F04D0D890B13709
:10155000B237B52BB2AFFAD7D890B337B437B15151
:10156000AF5DB251B059D8A005D0B151AF5FB25103
:10157000B05BB381D890B233B133B52FEDD7B3C0E0
:10158000AFF0B4C0B0F01200000E066E000E056E93
:1015900003500410D8B41CD0010E076E04D0D890AC
:1015A00003360436072A04AEFAD7D8900536063635
:1015B0000350015C04500258D8A005D00350015ECE
:1015C0000450025A0580D89004320332072EEDD71A
:1015D00005C001F006C002F012000001B851B911B7
:1015E000D8B418D0010EBA6F04D0D890B837B93734
:1015F000BA2BB9AFFAD7B851B65DB951B759D8A01F
:1016000004D0B851B65FB951B75BD890B933B8338D
:10161000BA2FF1D7B6C0B6F0B7C0B7F012000001CC
:10162000AF6F0001CD51D8B4FCD70E01C5B903D0BE
:10163000AFC09AFF13D0C59900018C51010D440E23
:10164000F324D96E000EF420DA6EAFC0DFFF8C2BCE
:10165000070E8C6502D0000E8C6FCD070E01C58978
:101660001200000E0001B26F0DD0B251010DF35007
:10167000B025D96EF450B121DA6EDF500FEC0BF0CB
:101680000001B22BB251010DF350B025D96EF450C8
:10169000B121DA6EDF50D8B41200E7D7000EC46E65
:1016A000000EC56E010EC66E000EC26E000EC16E3B
:1016B000C150C2CFAFF00001B06BAFC0B0F0AF6BA4
:1016C000AF115A6EB0515B6E0E01CE99330EC36EE0
:1016D0001200080E0001CD6112D08B51010D440E95
:1016E000F324D96E000EF420DA6EDF509A6E8B2B45
:1016F000070E8B6502D0000E8B6FCD2B12000E01F2
:10170000C59912009DA202D09D989D8800018A5122
:10171000010D3C0EF324D96E000EF420DA6E99CF41
:10172000DFFF8A2B070E8A6502D0000E8A6F4F2AD0
:10173000120009C001F00AC002F0036A8E0E046EA6
:10174000000E056E98EC09F001C009F002C00AF025
:1017500003C00BF0120000EE60F04F0EEE6AE806D8
:10176000FDE100EE3CF0150EEE6AE806FDE15C904E
:101770005C920001EFEF09F0575058105910D8B49F
:10178000120001D812000500FA6E5750FD6E585035
:10179000FE6E5950FF6EFA501200C382C1CF08F09E
:1017A000C2CF07F00750036E0850056E03C006F065
:1017B00005C001F006C002F012003FEC0CF0FBEC9B
:1017C0000BF02DEC0AF017EC0CF04EEC0BF0ECECFF
:1017D0000BF06AEC0AF012000E01CA91F2808A0E38
:1017E0000001AF6F180EB06F000EB16F23EC0CF05C
:1017F0000E01C2811200000E0E01E16F000EE26FB9
:10180000000EE36F000EE46F000EE56F000EE66F52
:101810001200C3A407D0C3900250C26E01C0C1FF22
:10182000C38012000250C26E01C0C1FF1200600EE0
:101830000E01D86F000EDA6F000EDC6F060EDE6F41
:10184000000EDD6F1200AFC057F0B0C058F0B1C04D
:1018500059F01200AFC054F0B0C055F0B1C056F00E
:101860001200AFC051F0B0C052F0B1C053F012003E
:101870000E01CA91BCEC0BF01200C3901200F29A58
:0C1880001200C3901200C380120012007E
:020000040020DA
:10000000FF0FFF0FFF0FFF0FFF0FFF0FFF0FFF0F80
:020000040030CA
:0C000000ECFFFFFF9FFFFFFFFFFFFFFF73
:00000001FF
