:0400000070EFFFF0AE
:020000040001F9
:10FEE000046A0001AFEFFFF0000E956E200E966ED3
:10FEF000000E936E1200016E969E01C092FF95A0B7
:10FF0000FED792501200A1ECFFF0C3ECFFF095EC8D
:10FF1000FFF074ECFFF01200026ED890023402344D
:10FF20007BECFFF08F8A8F9A1200620E0E01D86F61
:10FF3000000EDA6F000EDC6F020EDE6F000EDD6F5A
:10FF40001200000E0E01E16F000EE26F000EE36F73
:10FF5000000EE46F000EE56F000EE66F120083ECFA
:10FF6000FFF0210E036E760EE82EFED7032EFCD78F
:10FF700000D004508CECFFF0042A0428D8A4F1D758
:10FF8000000E046EEED7000E876E000E866E000E19
:10FF9000836E000E846E000E856E070E8C6E886870
:10FFA0008968C70E8A6E8B680F012669870E216FDC
:10FFB0001969070E2E6F1169000E256F000E2D6F47
:10FFC000000E186F000E106F000E206F000E2C6FC9
:10FFD000000E0F6F000E176F000E1F6F000E246FC4
:10FFE0000F0E0E01FA6F100EFB6FB781B783B79536
:10FFF000B797B789B891B883B885B897B889120010
:020000040020DA
:10000000FF0FFF0FFF0FFF0FFF0FFF0FFF0FFF0F80
:020000040030CA
:0C000000ECFF3FFF9FFFFFDFFFFFFFFF53
:00000001FF
